{
  "contractName": "Escrow",
  "abi": [
    {
      "constant": true,
      "inputs": [],
      "name": "getBalance",
      "outputs": [
        {
          "name": "",
          "type": "uint256"
        }
      ],
      "payable": false,
      "type": "function"
    },
    {
      "constant": true,
      "inputs": [
        {
          "name": "_user",
          "type": "address"
        }
      ],
      "name": "getUserReviews",
      "outputs": [
        {
          "name": "",
          "type": "uint256"
        },
        {
          "name": "",
          "type": "uint256"
        },
        {
          "name": "",
          "type": "uint256"
        }
      ],
      "payable": false,
      "type": "function"
    },
    {
      "constant": false,
      "inputs": [
        {
          "name": "_index",
          "type": "uint256"
        }
      ],
      "name": "killContract",
      "outputs": [
        {
          "name": "",
          "type": "bytes32"
        },
        {
          "name": "",
          "type": "uint256"
        }
      ],
      "payable": false,
      "type": "function"
    },
    {
      "constant": false,
      "inputs": [
        {
          "name": "_purchaseId",
          "type": "bytes32"
        },
        {
          "name": "_seller",
          "type": "address"
        },
        {
          "name": "_itemId",
          "type": "bytes32"
        },
        {
          "name": "_shippingDaysDeadline",
          "type": "uint256"
        }
      ],
      "name": "purchase",
      "outputs": [],
      "payable": true,
      "type": "function"
    },
    {
      "constant": true,
      "inputs": [
        {
          "name": "",
          "type": "bytes32"
        },
        {
          "name": "_seller",
          "type": "address"
        },
        {
          "name": "_itemId",
          "type": "bytes32"
        },
        {
          "name": "_shippingDaysDeadline",
          "type": "uint256"
        }
      ],
      "name": "itemSales",
      "outputs": [
        {
          "name": "",
          "type": "uint256"
        }
      ],
      "payable": false,
      "type": "function"
    },
    {
      "constant": false,
      "inputs": [
        {
          "name": "_day",
          "type": "uint256"
        }
      ],
      "name": "setConfirmationDaysDeadline",
      "outputs": [
        {
          "name": "",
          "type": "uint256"
        }
      ],
      "payable": false,
      "type": "function"
    },
    {
      "constant": false,
      "inputs": [
        {
          "name": "_purchaseId",
          "type": "bytes32"
        },
        {
          "name": "_userReviewId",
          "type": "bytes32"
        },
        {
          "name": "_itemReviewId",
          "type": "bytes32"
        },
        {
          "name": "_userRating",
          "type": "uint256"
        },
        {
          "name": "_itemRating",
          "type": "uint256"
        }
      ],
      "name": "confirmPurchase",
      "outputs": [],
      "payable": false,
      "type": "function"
    },
    {
      "constant": true,
      "inputs": [
        {
          "name": "_user",
          "type": "address"
        },
        {
          "name": "_index",
          "type": "uint256"
        },
        {
          "name": "_itemReviewId",
          "type": "bytes32"
        },
        {
          "name": "_userRating",
          "type": "uint256"
        },
        {
          "name": "_itemRating",
          "type": "uint256"
        }
      ],
      "name": "getUserReviewComment",
      "outputs": [
        {
          "name": "",
          "type": "bytes32"
        }
      ],
      "payable": false,
      "type": "function"
    },
    {
      "constant": true,
      "inputs": [
        {
          "name": "_user",
          "type": "address"
        },
        {
          "name": "_index",
          "type": "uint256"
        }
      ],
      "name": "getUserSalesNumber",
      "outputs": [
        {
          "name": "",
          "type": "uint256"
        }
      ],
      "payable": false,
      "type": "function"
    },
    {
      "constant": true,
      "inputs": [
        {
          "name": "",
          "type": "bytes32"
        }
      ],
      "name": "purchases",
      "outputs": [
        {
          "name": "amount",
          "type": "uint256"
        },
        {
          "name": "seller",
          "type": "address"
        },
        {
          "name": "buyer",
          "type": "address"
        },
        {
          "name": "status",
          "type": "uint8"
        },
        {
          "name": "code",
          "type": "bytes32"
        },
        {
          "name": "itemId",
          "type": "bytes32"
        },
        {
          "name": "category",
          "type": "uint8"
        },
        {
          "name": "shippingDaysDeadline",
          "type": "uint256"
        },
        {
          "name": "purchasedTime",
          "type": "uint256"
        },
        {
          "name": "shippedTime",
          "type": "uint256"
        },
        {
          "name": "cancelTime",
          "type": "uint256"
        },
        {
          "name": "completedTime",
          "type": "uint256"
        },
        {
          "name": "timeoutTime",
          "type": "uint256"
        }
      ],
      "payable": false,
      "type": "function"
    },
    {
      "constant": true,
      "inputs": [
        {
          "name": "",
          "type": "address"
        }
      ],
      "name": "userSales",
      "outputs": [
        {
          "name": "",
          "type": "uint256"
        },
        {
          "name": "seller",
          "type": "address"
        },
        {
          "name": "buyer",
          "type": "address"
        },
        {
          "name": "status",
          "type": "uint8"
        },
        {
          "name": "code",
          "type": "bytes32"
        },
        {
          "name": "itemId",
          "type": "bytes32"
        },
        {
          "name": "category",
          "type": "uint8"
        },
        {
          "name": "shippingDaysDeadline",
          "type": "uint256"
        },
        {
          "name": "purchasedTime",
          "type": "uint256"
        },
        {
          "name": "shippedTime",
          "type": "uint256"
        },
        {
          "name": "cancelTime",
          "type": "uint256"
        },
        {
          "name": "completedTime",
          "type": "uint256"
        },
        {
          "name": "timeoutTime",
          "type": "uint256"
        }
      ],
      "payable": false,
      "type": "function"
    },
    {
      "constant": false,
      "inputs": [
        {
          "name": "_purchaseId",
          "type": "bytes32"
        }
      ],
      "name": "cancelPurchase",
      "outputs": [
        {
          "name": "",
          "type": "uint256"
        }
      ],
      "payable": false,
      "type": "function"
    },
    {
      "constant": false,
      "inputs": [
        {
          "name": "",
          "type": "address"
        }
      ],
      "name": "cancelTimeoutOrders",
      "outputs": [
        {
          "name": "",
          "type": "uint256"
        }
      ],
      "payable": false,
      "type": "function"
    },
    {
      "constant": true,
      "inputs": [
        {
          "name": "",
          "type": "address"
        }
      ],
      "name": "userReviews",
      "outputs": [
        {
          "name": "total",
          "type": "uint256"
        },
        {
          "name": "rating",
          "type": "uint256"
        }
      ],
      "payable": false,
      "type": "function"
    },
    {
      "constant": true,
      "inputs": [
        {
          "name": "_purchaseId",
          "type": "bytes32"
        }
      ],
      "name": "getPurchaseState",
      "outputs": [
        {
          "name": "",
          "type": "uint8"
        }
      ],
      "payable": false,
      "type": "function"
    },
    {
      "constant": true,
      "inputs": [
        {
          "name": "_itemId",
          "type": "bytes32"
        }
      ],
      "name": "getItemReviews",
      "outputs": [
        {
          "name": "",
          "type": "uint256"
        },
        {
          "name": "",
          "type": "uint256"
        },
        {
          "name": "",
          "type": "uint256"
        }
      ],
      "payable": false,
      "type": "function"
    },
    {
      "constant": false,
      "inputs": [
        {
          "name": "_purchaseId",
          "type": "bytes32"
        },
        {
          "name": "_code",
          "type": "bytes32"
        }
      ],
      "name": "setCode",
      "outputs": [
        {
          "name": "total",
          "type": "uint256"
        },
        {
          "name": "rating",
          "type": "uint256"
        }
      ],
      "payable": false,
      "type": "function"
    },
    {
      "constant": true,
      "inputs": [
        {
          "name": "",
          "type": "bytes32"
        }
      ],
      "name": "itemReviews",
      "outputs": [
        {
          "name": "total",
          "type": "uint256"
        },
        {
          "name": "rating",
          "type": "uint256"
        }
      ],
      "payable": false,
      "type": "function"
    },
    {
      "constant": true,
      "inputs": [
        {
          "name": "_purchaseId",
          "type": "bytes32"
        }
      ],
      "name": "getPurchaseTimes",
      "outputs": [
        {
          "name": "",
          "type": "uint256"
        },
        {
          "name": "",
          "type": "uint256"
        },
        {
          "name": "",
          "type": "uint256"
        },
        {
          "name": "",
          "type": "uint256"
        },
        {
          "name": "",
          "type": "uint256"
        },
        {
          "name": "",
          "type": "uint256"
        }
      ],
      "payable": false,
      "type": "function"
    },
    {
      "constant": true,
      "inputs": [
        {
          "name": "_itemId",
          "type": "bytes32"
        }
      ],
      "name": "getItemSalesNumber",
      "outputs": [
        {
          "name": "",
          "type": "uint256"
        }
      ],
      "payable": false,
      "type": "function"
    },
    {
      "constant": true,
      "inputs": [
        {
          "name": "_itemId",
          "type": "bytes32"
        },
        {
          "name": "_index",
          "type": "uint256"
        }
      ],
      "name": "getItemReviewComment",
      "outputs": [
        {
          "name": "",
          "type": "bytes32"
        },
        {
          "name": "",
          "type": "uint256"
        },
        {
          "name": "",
          "type": "uint256"
        }
      ],
      "payable": false,
      "type": "function"
    },
    {
      "constant": true,
      "inputs": [
        {
          "name": "_purchaseId",
          "type": "bytes32"
        },
        {
          "name": "_code",
          "type": "bytes32"
        }
      ],
      "name": "IndexOfPurchase",
      "outputs": [
        {
          "name": "",
          "type": "uint256"
        }
      ],
      "payable": false,
      "type": "function"
    },
    {
      "constant": true,
      "inputs": [
        {
          "name": "",
          "type": "bytes32"
        }
      ],
      "name": "confirmationDaysDeadline",
      "outputs": [
        {
          "name": "",
          "type": "uint256"
        },
        {
          "name": "rating",
          "type": "uint256"
        }
      ],
      "payable": false,
      "type": "function"
    },
    {
      "constant": true,
      "inputs": [
        {
          "name": "_purchaseId",
          "type": "bytes32"
        }
      ],
      "name": "getPurchaseTimes",
      "outputs": [
        {
          "name": "",
          "type": "uint256"
        },
        {
          "name": "",
          "type": "uint256"
        },
        {
          "name": "",
          "type": "uint256"
        },
        {
          "name": "",
          "type": "uint256"
        },
        {
          "name": "",
          "type": "uint256"
        },
        {
          "name": "",
          "type": "uint256"
        }
      ],
      "payable": false,
      "type": "constructor"
    },
    {
      "constant": true,
      "inputs": [
        {
          "name": "purchaseId",
          "type": "bytes32",
          "indexed": false
        },
        {
          "indexed": false,
          "name": "buyer",
          "type": "address"
        },
        {
          "indexed": false,
          "name": "seller",
          "type": "address"
        },
        {
          "indexed": false,
          "name": "itemId",
          "type": "bytes32"
        },
        {
          "indexed": false,
          "name": "amount",
          "type": "uint256"
        }
      ],
      "name": "ItemPurchased",
      "outputs": [
        {
          "name": "",
          "type": "uint256"
        }
      ],
      "payable": false,
      "type": "event",
      "anonymous": false
    },
    {
      "constant": true,
      "inputs": [
        {
          "name": "purchaseId",
          "type": "bytes32",
          "indexed": false
        },
        {
          "name": "buyer",
          "type": "address",
          "indexed": false
        },
        {
          "indexed": false,
          "name": "seller",
          "type": "address"
        },
        {
          "indexed": false,
          "name": "itemId",
          "type": "bytes32"
        },
        {
          "indexed": false,
          "name": "code",
          "type": "bytes32"
        }
      ],
      "name": "ItemShipped",
      "outputs": [
        {
          "name": "",
          "type": "bytes32"
        }
      ],
      "payable": false,
      "type": "event",
      "anonymous": false
    },
    {
      "constant": true,
      "inputs": [
        {
          "name": "purchaseId",
          "type": "bytes32",
          "indexed": false
        },
        {
          "indexed": false,
          "name": "buyer",
          "type": "address"
        },
        {
          "indexed": false,
          "name": "seller",
          "type": "address"
        },
        {
          "indexed": false,
          "name": "itemId",
          "type": "bytes32"
        }
      ],
      "name": "PurchaseCompleted",
      "outputs": [
        {
          "name": "",
          "type": "uint256"
        }
      ],
      "payable": false,
      "type": "event",
      "anonymous": false
    },
    {
      "constant": false,
      "inputs": [
        {
          "name": "purchaseId",
          "type": "bytes32",
          "indexed": false
        },
        {
          "indexed": false,
          "name": "sender",
          "type": "address"
        },
        {
          "indexed": false,
          "name": "buyer",
          "type": "address"
        },
        {
          "indexed": false,
          "name": "seller",
          "type": "address"
        },
        {
          "indexed": false,
          "name": "itemId",
          "type": "bytes32"
        }
      ],
      "name": "PurchaseCancelled",
      "outputs": [],
      "payable": false,
      "type": "event",
      "anonymous": false
    },
    {
      "inputs": [
        {
          "indexed": false,
          "name": "purchaseId",
          "type": "bytes32"
        },
        {
          "indexed": false,
          "name": "buyer",
          "type": "address"
        },
        {
          "indexed": false,
          "name": "seller",
          "type": "address"
        },
        {
          "indexed": false,
          "name": "itemId",
          "type": "bytes32"
        }
      ],
      "payable": false,
      "type": "event",
      "anonymous": false,
      "name": "ShippingTimeout"
    },
    {
      "anonymous": false,
      "inputs": [
        {
          "indexed": false,
          "name": "purchaseId",
          "type": "bytes32"
        },
        {
          "indexed": false,
          "name": "buyer",
          "type": "address"
        },
        {
          "indexed": false,
          "name": "seller",
          "type": "address"
        },
        {
          "indexed": false,
          "name": "itemId",
          "type": "bytes32"
        },
        {
          "indexed": false,
          "name": "amount",
          "type": "uint256"
        }
      ],
      "name": "ConfirmationTimeout",
      "type": "event"
    },
    {
      "anonymous": false,
      "inputs": [
        {
          "indexed": false,
          "name": "purchaseId",
          "type": "bytes32"
        },
        {
          "indexed": false,
          "name": "buyer",
          "type": "address"
        },
        {
          "indexed": false,
          "name": "seller",
          "type": "address"
        },
        {
          "indexed": false,
          "name": "itemId",
          "type": "bytes32"
        },
        {
          "indexed": false,
          "name": "code",
          "type": "bytes32"
        }
      ],
      "name": "ItemShipped",
      "type": "event"
    },
    {
      "anonymous": false,
      "inputs": [
        {
          "indexed": false,
          "name": "purchaseId",
          "type": "bytes32"
        },
        {
          "indexed": false,
          "name": "buyer",
          "type": "address"
        },
        {
          "indexed": false,
          "name": "seller",
          "type": "address"
        },
        {
          "indexed": false,
          "name": "itemId",
          "type": "bytes32"
        }
      ],
      "name": "PurchaseCompleted",
      "type": "event"
    },
    {
      "anonymous": false,
      "inputs": [
        {
          "indexed": false,
          "name": "purchaseId",
          "type": "bytes32"
        },
        {
          "indexed": false,
          "name": "sender",
          "type": "address"
        },
        {
          "indexed": false,
          "name": "buyer",
          "type": "address"
        },
        {
          "indexed": false,
          "name": "seller",
          "type": "address"
        },
        {
          "indexed": false,
          "name": "itemId",
          "type": "bytes32"
        }
      ],
      "name": "PurchaseCancelled",
      "type": "event"
    },
    {
      "anonymous": false,
      "inputs": [
        {
          "indexed": false,
          "name": "purchaseId",
          "type": "bytes32"
        },
        {
          "indexed": false,
          "name": "buyer",
          "type": "address"
        },
        {
          "indexed": false,
          "name": "seller",
          "type": "address"
        },
        {
          "indexed": false,
          "name": "itemId",
          "type": "bytes32"
        }
      ],
      "name": "ShippingTimeout",
      "type": "event"
    },
    {
      "anonymous": false,
      "inputs": [
        {
          "indexed": false,
          "name": "purchaseId",
          "type": "bytes32"
        },
        {
          "indexed": false,
          "name": "buyer",
          "type": "address"
        },
        {
          "indexed": false,
          "name": "seller",
          "type": "address"
        },
        {
          "indexed": false,
          "name": "itemId",
          "type": "bytes32"
        }
      ],
      "name": "ConfirmationTimeout",
      "type": "event"
    }
  ],
  "bytecode": "0x60606040526000600855600f600955341561001957600080fd5b5b60008054600160a060020a03191633600160a060020a03161790555b5b61158b806100466000396000f300606060405236156101305763ffffffff7c010000000000000000000000000000000000000000000000000000000060003504166312065fe0811461013557806318d0e8b21461015a5780631c02708d1461019d57806329c55d8b146101b25780633785d058146101d157806339cbacc6146101f957806345857074146102115780634aaefc781461023557806353f6bedf146102695780637ab8dbe91461029a57806381cc85a214610343578063951f38cf14610374578063a60bddea1461038c578063a9300669146103a1578063bd6d60d4146103d8578063c07dcedb14610412578063c1f364e21461044c578063ce428fc914610467578063d7e69e7c14610495578063dfd38546146104e4578063e18a2be11461050c578063e841520314610537578063f35bb7a21461055f575b600080fd5b341561014057600080fd5b610148610584565b60405190815260200160405180910390f35b341561016557600080fd5b610179600160a060020a03600435166105b1565b60405180848152602001838152602001828152602001935050505060405180910390f35b34156101a857600080fd5b6101b06105e1565b005b6101b0600435600160a060020a036024351660443560643561060d565b005b34156101dc57600080fd5b61014860043561074e565b60405190815260200160405180910390f35b341561020457600080fd5b6101b0600435610760565b005b341561021c57600080fd5b6101b0600435602435604435606435608435610785565b005b341561024057600080fd5b610148600160a060020a0360043516602435610931565b60405190815260200160405180910390f35b341561027457600080fd5b610148600160a060020a0360043516610971565b60405190815260200160405180910390f35b34156102a557600080fd5b6102b0600435610990565b6040518d8152600160a060020a03808e1660208301528c166040820152606081018b60078111156102dd57fe5b60ff168152602081018b9052604081018a90526060018860038111156102ff57fe5b60ff1681526020018781526020018681526020018581526020018481526020018381526020018281526020019d505050505050505050505050505060405180910390f35b341561034e57600080fd5b610148600160a060020a03600435166109ff565b60405190815260200160405180910390f35b341561037f57600080fd5b6101b0600435610a11565b005b341561039757600080fd5b6101b0610cf7565b005b34156103ac57600080fd5b6103c0600160a060020a0360043516610d85565b60405191825260208201526040908101905180910390f35b34156103e357600080fd5b6103ee600435610d9e565b604051808260078111156103fe57fe5b60ff16815260200191505060405180910390f35b341561041d57600080fd5b610179600435610dc0565b60405180848152602001838152602001828152602001935050505060405180910390f35b341561045757600080fd5b6101b0600435602435610de6565b005b341561047257600080fd5b6103c0600435610ed8565b60405191825260208201526040908101905180910390f35b34156104a057600080fd5b6104ab600435610ef1565b60405180878152602001868152602001858152602001848152602001838152602001828152602001965050505050505060405180910390f35b34156104ef57600080fd5b610148600435610f30565b60405190815260200160405180910390f35b341561051757600080fd5b610148600435602435610f45565b60405190815260200160405180910390f35b341561054257600080fd5b610148600435610f7b565b60405190815260200160405180910390f35b341561056a57600080fd5b610148610fcd565b60405190815260200160405180910390f35b6000805433600160a060020a039081169116146105a057600080fd5b50600160a060020a033016315b5b90565b600160a060020a0381166000908152600460205260409020805460018201546002909201549091905b9193909250565b60005433600160a060020a039081169116146105fc57600080fd5b600054600160a060020a0316ff5b5b565b3383600160a060020a03808316908216141561062857600080fd5b6000868152600160208190526040909120600481018690558082018054600160a060020a03808a1673ffffffffffffffffffffffffffffffffffffffff19928316179092556002909201805433909216919092161780825560a060020a60ff02191660a060020a835b021790555060008681526001602081905260409091203481554260078201819055620151808602016006918201558054909181016106cf83826114ea565b916000526020600020900160005b50879055507fde1e745cd2c9fb380a94905662c70d0ac280fe254a48511d9441b42791ce42078633878734604051948552600160a060020a039384166020860152919092166040808501919091526060840192909252608083015260a0909101905180910390a15b5b505050505050565b60026020526000908152604090205481565b60005433600160a060020a0390811691161461077b57600080fd5b60098190555b5b50565b600085815260016020526040902060020154600160a060020a0390811690331681146107b057600080fd5b600086815260016020819052604091829020908101549054600160a060020a039091169181156108fc02919051600060405180830381858888f193505050501561074557600086815260016020526040812090815560020180546003919060a060020a60ff02191660a060020a835b02179055506000868152600160208181526040808420600401548452600290915282208054909101905561085590878685610fd3565b6000868152600160208181526040808420830154600160a060020a03168452600390915290912080548201905561088e90878786610fd3565b61089f61089a87610f7b565b61106f565b60008681526001602081905260409182902042600a820155908101546004909101547f641385b11530f0f251769ab0642bbf0395db265c31c98c75adb21fff8353c3a59289923392600160a060020a039091169151938452600160a060020a039283166020850152911660408084019190915260608301919091526080909101905180910390a15b5b5b505050505050565b600160a060020a038216600090815260046020526040812060020180548390811061095857fe5b906000526020600020900160005b505490505b92915050565b600160a060020a0381166000908152600360205260409020545b919050565b600160208190526000918252604090912080549181015460028201546003830154600484015460058501546006860154600787015460088801546009890154600a8a0154600b909a0154600160a060020a03998a169a9989169960a060020a90990460ff90811699961695908d565b60036020526000908152604090205481565b60008181526001602052604090819020906101a090519081016040908152825482526001830154600160a060020a039081166020840152600284015490811691830191909152909190606083019060a060020a900460ff166007811115610a7457fe5b6007811115610a7f57fe5b8152600382810154602083015260048301546040830152600583015460609092019160ff1690811115610aae57fe5b6003811115610ab957fe5b815260068201546020820152600782015460408201526008820154606082015260098201546080820152600a82015460a0820152600b9091015460c0909101526001805b82606001516007811115610b0d57fe5b1415610b1857600080fd5b60008381526001602081905260409091206002810154910154600160a060020a0391821691908116903316821480610b61575080600160a060020a031633600160a060020a0316145b1515610b6c57600080fd5b6000858152600160205260409081902060028101549054600160a060020a039091169181156108fc02919051600060405180830381858888f1935050505015610ced5760008581526001602052604090206002015433600160a060020a0390811691161415610c0757600085815260016020526040902060020180546004919060a060020a60ff02191660a060020a835b0217905550610c35565b600085815260016020526040902060020180546005919060a060020a60ff02191660a060020a835b02179055505b600085815260016020526040812090815542600990910155610c5e61089a86610f7b565b61106f565b6000858152600160208190526040918290206002810154918101546004909101547fd1a286b4e517e6ffe82b45e41e7758e1931d9ea1ffda3a16ec52f87bf2ad56a49389933393600160a060020a039182169391169151948552600160a060020a03938416602086015291831660408086019190915292166060840152608083015260a0909101905180910390a15b5b5b50505b505050565b6000805433600160a060020a03908116911614610d1357600080fd5b5060005b600654811015610d7857610d48600682815481101515610d3357fe5b906000526020600020900160005b5054611137565b610d6f600682815481101515610d5a57fe5b906000526020600020900160005b50546112e4565b5b600101610d17565b61078161149c565b5b5b50565b6004602052600090815260409020805460019091015482565b60008181526001602052604090206002015460a060020a900460ff165b919050565b6000818152600560205260409020805460018201546002909201549091905b9193909250565b60008281526001602081905260409091200154600160a060020a039081169033168114610e1257600080fd5b6000838152600160205260409020600381018390556002908101805460a060020a60ff02191660a060020a835b02179055506000838152600160205260409081902042600882015560028101546004909101547fb44d4c558a8493b168dbfb2c7a42c128aeddfb301db4eb4a4f7922a814e8063e928692600160a060020a0316913391879051948552600160a060020a039384166020860152919092166040808501919091526060840192909252608083015260a0909101905180910390a15b5b505050565b6005602052600090815260409020805460019091015482565b60008181526001602052604090206006810154600782015460088301546009840154600a850154600b9095015493949293919290915b91939550919395565b6000818152600260205260409020545b919050565b600082815260056020526040812060020180548390811061095857fe5b906000526020600020900160005b505490505b92915050565b6000805b600654811015610fc1576006805484919083908110610f9a57fe5b906000526020600020900160005b50541415610fb857809150610fc7565b5b600101610f7f565b60001991505b50919050565b60095481565b600084156110075750600083815260016020818152604080842090920154600160a060020a03168352600490529020611027565b506000838152600160209081526040808320600401548352600590915290205b811561103f5780546001908101825581018054830190555b6002810180546001810161105383826114ea565b916000526020600020900160005b50849055505b5b5050505050565b6000198114158015611082575060065481105b151561108d57600080fd5b600680548290811061109b57fe5b906000526020600020900160005b50600090556006546002901061111f576006805460001981019081106110cb57fe5b906000526020600020900160005b505460068054839081106110e957fe5b906000526020600020900160005b505560068054600019810190811061110b57fe5b906000526020600020900160005b50600090555b60068054906111329060001983016114ea565b505b50565b600081815260016020526040902060060154429010801561117f575060015b60008281526001602052604090206002015460a060020a900460ff16600781111561117d57fe5b145b15610781576000818152600160205260409081902060028101549054600160a060020a039091169181156108fc02919051600060405180830381858888f193505050501561078157600081815260016020526040902060020180546006919060a060020a60ff02191660a060020a835b0217905550600081815260016020526040812055600754600854141561122357600780546001019061122190826114ea565b505b80600760085481548110151561123557fe5b906000526020600020900160005b50556008805460019081019091556000828152602082905260409081902042600b8201556002810154928101546004909101547fd2b20e3fd34b4b39d21f00ab337caf304238fe2509f690398953a389d3cd349b938593600160a060020a0391821693909116919051938452600160a060020a039283166020850152911660408084019190915260608301919091526080909101905180910390a15b5b5b50565b600954600082815260016020526040902060080154426201518090920201108015611336575060025b60008281526001602052604090206002015460a060020a900460ff16600781111561133457fe5b145b1561078157600081815260016020819052604091829020908101549054600160a060020a039091169181156108fc02919051600060405180830381858888f193505050501561078157600081815260016020526040902060020180546007919060a060020a60ff02191660a060020a835b021790555060008181526001602052604081205560075460085414156113db5760078054600101906113d990826114ea565b505b8060076008548154811015156113ed57fe5b906000526020600020900160005b50556008805460019081019091556000828152602082905260409081902042600b8201556002810154928101546004909101547fd24002deb9dab2a210099da5b3c0c0d70ee3fd6a96d1efb665c0713468b03560938593600160a060020a0391821693909116919051938452600160a060020a039283166020850152911660408084019190915260608301919091526080909101905180910390a15b5b5b50565b60005b6008548110156114e1576114d861089a6007838154811015156114be57fe5b906000526020600020900160005b5054610f7b565b61106f565b5b60010161149f565b60006008555b50565b815481835581811511610cf257600083815260209020610cf291810190830161153e565b5b505050565b815481835581811511610cf257600083815260209020610cf291810190830161153e565b5b505050565b6105ad91905b808211156115585760008155600101611544565b5090565b905600a165627a7a72305820ecb29eb58f29ead0ae4a18205ab7cf5dd97873a8d85f3b93c57e25edf30e92410029",
  "source": "pragma solidity ^0.4.15; //We have to specify what version of compiler this code will use\n\ncontract Escrow {\n  enum Status {Pending, Purchased, Shipped, Completed, BuyerCancelled, SellerCancelled, SellerShippingTimeOut, BuyerConfirmationTimeOut}\n  enum Category {Good, Digital, Service, Auction}\n\n  struct Purchase {\n    uint amount;\n    address seller;\n    address buyer;\n    Status status;\n    bytes32 code;\n    bytes32 itemId;\n    Category category;\n    uint shippingDaysDeadline;\n    uint purchasedTime;\n    uint shippedTime;\n    uint cancelTime;\n    uint completedTime;\n    uint timeoutTime;\n  }\n\n  struct Review {\n    uint total;\n    uint rating;\n    bytes32[] comments;\n  }\n\n  address owner;\n  mapping(bytes32 => Purchase) public purchases;\n  mapping(bytes32 => uint) public itemSales;\n  mapping(address => uint) public userSales;\n  mapping(address => Review) public userReviews;\n  mapping(bytes32 => Review) public itemReviews;\n  bytes32[] private pendingPurchases;\n  bytes32[] private pendingPurchasesToDelete;\n  uint private numPendingPurchasesToDelete = 0;\n  uint public confirmationDaysDeadline = 15;\n\n  event ItemPurchased(bytes32 purchaseId, address buyer, address seller, bytes32 itemId, uint amount);\n  event ItemShipped(bytes32 purchaseId, address buyer, address seller, bytes32 itemId, bytes32 code);\n  event PurchaseCompleted(bytes32 purchaseId, address buyer, address seller, bytes32 itemId);\n  event PurchaseCancelled(bytes32 purchaseId, address sender, address buyer, address seller, bytes32 itemId);\n  event ShippingTimeout(bytes32 purchaseId, address buyer, address seller, bytes32 itemId);\n  event ConfirmationTimeout(bytes32 purchaseId, address buyer, address seller, bytes32 itemId);\n\n  function Escrow() {\n    owner = msg.sender;\n  }\n\n  modifier onlyOwner() {\n    require(msg.sender == owner);\n    _;\n  }\n\n  modifier onlyBuyer(address _buyer) {\n    require(msg.sender == _buyer);\n    _;\n  }\n\n  modifier onlySeller(address _seller) {\n    require(msg.sender == _seller);\n    _;\n  }\n\n  modifier onlyBuyerOrSeller(address _buyer, address _seller) {\n    require(msg.sender == _buyer || msg.sender == _seller);\n    _;\n  }\n\n  /**\n   * Prevent a buyer from buying an item he listed himself\n   * {address} _buyer\n   * {address} _seller\n   */\n  modifier preventSelfBuy(address _buyer, address _seller) {\n    require(_buyer != _seller);\n    _;\n  }\n\n  /**\n   * Require that current state of purchase \"_purchaseState\" is equal to \"_tmpState\"\n   * {Purchase} _purchase: current purchase\n   * {Status} _requirePurchaseState: purchase status we want the purchase to be equal to\n   */\n  modifier onlyForPurchaseState(Purchase _purchase, Status _requirePurchaseState) {\n    require(_purchase.status != _requirePurchaseState);\n    _;\n  }\n\n  /**\n   * Buyer Purchase an item '_itemId' from Seller (_seller) - State of the purchase : \"Purchased\"\n   *  {bytes32} ID of _purchase\n   *  {address} wallet address of _seller\n   *  {bytes32} ID of _item\n   *  {uint} seller needs to ship the item within _shippingDaysDeadline days after purchase or purchase will be timeout and cancelled\n   */\n  function purchase(bytes32 _purchaseId, address _seller, bytes32 _itemId, uint _shippingDaysDeadline)\n  preventSelfBuy(msg.sender, _seller)\n  payable public\n  {\n    purchases[_purchaseId].itemId = _itemId;\n    purchases[_purchaseId].seller = _seller;\n    purchases[_purchaseId].buyer = msg.sender;\n    purchases[_purchaseId].status = Status.Purchased;\n    purchases[_purchaseId].amount = msg.value;\n    purchases[_purchaseId].purchasedTime = now;\n    purchases[_purchaseId].shippingDaysDeadline = now + _shippingDaysDeadline * 1 days;\n    pendingPurchases.push(_purchaseId);\n    ItemPurchased(_purchaseId, msg.sender, _seller, _itemId, msg.value);\n  }\n\n  // Seller send the code to Buyer\n  // Code can be a tracking number, a digital code, a coupon\n  // State of the purchase : \"Shipped\"\n  function setCode(bytes32 _purchaseId, bytes32 _code)\n  onlySeller(purchases[_purchaseId].seller)\n  public\n  {\n    purchases[_purchaseId].code = _code;\n    purchases[_purchaseId].status = Status.Shipped;\n    purchases[_purchaseId].shippedTime = now;\n    ItemShipped(_purchaseId, purchases[_purchaseId].buyer, msg.sender, purchases[_purchaseId].itemId, _code);\n  }\n\n  // Buyer confirms receive the code from the Seller - Completing the transactions\n  // Seller receives the money\n  // State of the purchase : \"Completed\"\n  function confirmPurchase(bytes32 _purchaseId, bytes32 _userReviewId, bytes32 _itemReviewId, uint _userRating, uint _itemRating)\n  onlyBuyer(purchases[_purchaseId].buyer)\n  public\n  {\n    if (purchases[_purchaseId].seller.send(purchases[_purchaseId].amount)) {\n      purchases[_purchaseId].amount = 0;\n      purchases[_purchaseId].status = Status.Completed;\n      // Set item's review & rating + total number of item sales\n      itemSales[purchases[_purchaseId].itemId] += 1;\n      setReview(false, _purchaseId, _itemReviewId, _itemRating);\n\n      // Set user's review & rating + total number of sales\n      userSales[purchases[_purchaseId].seller] += 1;\n      setReview(true, _purchaseId, _userReviewId, _userRating);\n      deleteOnePurchaseFromPending(IndexOfPurchase(_purchaseId));\n      purchases[_purchaseId].completedTime = now;\n      PurchaseCompleted(_purchaseId, msg.sender, purchases[_purchaseId].seller, purchases[_purchaseId].itemId);\n    }\n  }\n\n  // Set Item or Users's review & rating\n  function setReview(bool isUserReview, bytes32 _purchaseId, bytes32 _reviewId, uint _rating) private {\n    Review review;\n    if (isUserReview) {\n      review = userReviews[purchases[_purchaseId].seller];\n    } else {\n      review = itemReviews[purchases[_purchaseId].itemId];\n    }\n\n    // No rating was provided\n    if (_rating != 0) {\n      review.total += 1;\n      review.rating += _rating;\n    }\n    // No review was provided\n    if (_reviewId.length != 0) {\n      review.comments.push(_reviewId);\n    }\n  }\n\n  // Cancel a Purchase\n  // ---> can only happen before the item has been shipped\n  // If sender == buyer : State of the purchase : \"BuyerCancelled\"\n  // If sender == buyer : State of the purchase : \"SellerCancelled\"\n  function cancelPurchase(bytes32 _purchaseId)\n  onlyForPurchaseState(purchases[_purchaseId], Status.Purchased)\n  onlyBuyerOrSeller(purchases[_purchaseId].buyer, purchases[_purchaseId].seller)\n  public\n  {\n    if (purchases[_purchaseId].buyer.send(purchases[_purchaseId].amount)) {\n      if (purchases[_purchaseId].buyer == msg.sender) {\n          purchases[_purchaseId].status = Status.BuyerCancelled;\n        } else {\n          purchases[_purchaseId].status = Status.SellerCancelled;\n        }\n\n      purchases[_purchaseId].amount = 0;\n      purchases[_purchaseId].cancelTime = now;\n      deleteOnePurchaseFromPending(IndexOfPurchase(_purchaseId));\n      PurchaseCancelled(_purchaseId, msg.sender, purchases[_purchaseId].buyer, purchases[_purchaseId].seller, purchases[_purchaseId].itemId);\n    }\n  }\n\n  // Get total balance of the Escrow contract\n  function getBalance() onlyOwner constant public returns (uint) {\n    return this.balance;\n  }\n\n  // Kill the contract and send all the balance to the owner's wallet\n  function killContract() onlyOwner public {\n    selfdestruct(owner);\n  }\n\n  // Get Shipping Date Deadline for a purchase\n  function getPurchaseTimes(bytes32 _purchaseId) constant public returns (uint, uint, uint, uint, uint, uint) {\n    return (purchases[_purchaseId].shippingDaysDeadline,\n            purchases[_purchaseId].purchasedTime,\n            purchases[_purchaseId].shippedTime,\n            purchases[_purchaseId].cancelTime,\n            purchases[_purchaseId].completedTime,\n            purchases[_purchaseId].timeoutTime);\n  }\n\n  // Get current state of a purchase\n  function getPurchaseState(bytes32 _purchaseId) constant public returns (Status) {\n    return purchases[_purchaseId].status;\n  }\n\n  // Get seller total number of sales he made\n  function getUserSalesNumber(address _user) constant public returns (uint) {\n    return userSales[_user];\n  }\n\n  // Get total number item sold\n  function getItemSalesNumber(bytes32 _itemId) constant public returns (uint) {\n    return itemSales[_itemId];\n  }\n\n  // Get a seller total number of rating\n  //     -- and the accumulated rating score\n  //     -- and the total number of reviews left\n  function getUserReviews(address _user) constant public returns (uint, uint, uint) {\n    return (userReviews[_user].total,\n            userReviews[_user].rating,\n            userReviews[_user].comments.length);\n  }\n\n  // Get one user review ID\n  function getUserReviewComment(address _user, uint _index) constant public returns (bytes32) {\n    return userReviews[_user].comments[_index];\n  }\n\n  // Get an item total number of rating\n  //     -- and the accumulated rating score\n  //     -- and the total number of reviews left\n  function getItemReviews(bytes32 _itemId) constant public returns (uint, uint, uint) {\n    return (itemReviews[_itemId].total,\n            itemReviews[_itemId].rating,\n            itemReviews[_itemId].comments.length);\n  }\n\n  // Get one item review ID\n  function getItemReviewComment(bytes32 _itemId, uint _index) constant public returns (bytes32) {\n    return itemReviews[_itemId].comments[_index];\n  }\n\n  // Delete a purchase from the list of pending purchases\n  // i.e : when a purchase is complete or cancel\n  function deleteOnePurchaseFromPending(uint index) private {\n    // Index == -1 means that the item doesn't exist in the array\n    require((index !=  uint(-1)) && (index < pendingPurchases.length));\n\n    delete pendingPurchases[index];\n    if (pendingPurchases.length >= 2) {\n      pendingPurchases[index] = pendingPurchases[pendingPurchases.length - 1];\n      delete pendingPurchases[pendingPurchases.length - 1];\n    }\n    pendingPurchases.length--;\n  }\n\n   // Finds the index of a given purchaseId in the pending purchases array.\n  function IndexOfPurchase(bytes32 _purchaseId) constant public returns(uint) {\n    for (uint i = 0; i < pendingPurchases.length; i++) {\n      if (pendingPurchases[i] == _purchaseId) {\n        return i;\n      }\n    }\n    // Index not found\n    return uint(-1);\n  }\n\n  // Main auto cancel function\n  //   -- cancel shipping Timeout orders\n  //   -- cancel confirmation timeout orders\n  function cancelTimeoutOrders() onlyOwner public {\n    for (uint i = 0; i < pendingPurchases.length; i++) {\n      // Automatically cancel orders that haven't been shipped before the deadline\n      cancelShippingTimeoutOrders(pendingPurchases[i]);\n      // Automatically cancel orders that haven't been shipped before the deadline\n      cancelConfirmationTimeoutOrders(pendingPurchases[i]);\n    }\n    clearPendingPurchases();\n  }\n\n  // This function will remove all purchases included in pendingPurchasesToDelete array from pendingPurchases\n  // Purchase found in pendingPurchasesToDelete : means that the purchase state is not pending anymore\n  function clearPendingPurchases() private {\n    for (uint i = 0; i < numPendingPurchasesToDelete; i++) {\n      deleteOnePurchaseFromPending(IndexOfPurchase(pendingPurchasesToDelete[i]));\n    }\n    numPendingPurchasesToDelete = 0;\n  }\n\n  // Automatically cancel orders that haven't been shipped before the deadline\n  function cancelShippingTimeoutOrders(bytes32 _purchaseId) private {\n    if ((purchases[_purchaseId].shippingDaysDeadline <  now) && (purchases[_purchaseId].status == Status.Purchased)) {\n      if (purchases[_purchaseId].buyer.send(purchases[_purchaseId].amount)) {\n        purchases[_purchaseId].status = Status.SellerShippingTimeOut;\n        purchases[_purchaseId].amount = 0;\n        if (numPendingPurchasesToDelete == pendingPurchasesToDelete.length) {\n          pendingPurchasesToDelete.length += 1;\n        }\n        pendingPurchasesToDelete[numPendingPurchasesToDelete] = _purchaseId;\n        numPendingPurchasesToDelete += 1;\n        purchases[_purchaseId].timeoutTime = now;\n        ShippingTimeout(_purchaseId, purchases[_purchaseId].buyer, purchases[_purchaseId].seller, purchases[_purchaseId].itemId);\n      }\n    }\n  }\n\n  // Automatically confirm orders that haven't been confirmed by the users before the deadline\n  function cancelConfirmationTimeoutOrders(bytes32 _purchaseId) private {\n    if (((purchases[_purchaseId].shippedTime + confirmationDaysDeadline * 1 days) <  now) && (purchases[_purchaseId].status == Status.Shipped)) {\n      if (purchases[_purchaseId].seller.send(purchases[_purchaseId].amount)) {\n        purchases[_purchaseId].status = Status.BuyerConfirmationTimeOut;\n        purchases[_purchaseId].amount = 0;\n        if (numPendingPurchasesToDelete == pendingPurchasesToDelete.length) {\n          pendingPurchasesToDelete.length += 1;\n        }\n        pendingPurchasesToDelete[numPendingPurchasesToDelete] = _purchaseId;\n        numPendingPurchasesToDelete += 1;\n        purchases[_purchaseId].timeoutTime = now;\n        ConfirmationTimeout(_purchaseId, purchases[_purchaseId].buyer, purchases[_purchaseId].seller, purchases[_purchaseId].itemId);\n      }\n    }\n  }\n\n  // Set a global number of days limitation to confirm a purchase after shipping before it gets automatically confirmed\n  function setConfirmationDaysDeadline(uint _day) onlyOwner public {\n    confirmationDaysDeadline = _day;\n  }\n}\n\n",
  "sourcePath": "/Users/fcheng/workspace/Personal/simba-market/contracts/Escrow.sol",
  "schemaVersion": "1.0.0",
  "updatedAt": "2017-09-28T13:31:56.340Z"
}