{
  "contractName": "Escrow",
  "abi": [
    {
      "constant": true,
      "inputs": [],
      "name": "getBalance",
      "outputs": [
        {
          "name": "",
          "type": "uint256"
        }
      ],
      "payable": false,
      "type": "function",
      "stateMutability": "view"
    },
    {
      "constant": true,
      "inputs": [
        {
          "name": "_user",
          "type": "address"
        }
      ],
      "name": "getUserReviews",
      "outputs": [
        {
          "name": "",
          "type": "uint256"
        },
        {
          "name": "",
          "type": "uint256"
        },
        {
          "name": "",
          "type": "uint256"
        }
      ],
      "payable": false,
      "type": "function",
      "stateMutability": "view"
    },
    {
      "constant": false,
      "inputs": [],
      "name": "killContract",
      "outputs": [],
      "payable": false,
      "type": "function",
      "stateMutability": "nonpayable"
    },
    {
      "constant": false,
      "inputs": [
        {
          "name": "_purchaseId",
          "type": "bytes32"
        },
        {
          "name": "_seller",
          "type": "address"
        },
        {
          "name": "_itemId",
          "type": "bytes32"
        },
        {
          "name": "_shippingDaysDeadline",
          "type": "uint256"
        }
      ],
      "name": "purchase",
      "outputs": [],
      "payable": true,
      "type": "function",
      "stateMutability": "payable"
    },
    {
      "constant": false,
      "inputs": [],
      "name": "withdraw",
      "outputs": [],
      "payable": false,
      "type": "function",
      "stateMutability": "nonpayable"
    },
    {
      "constant": false,
      "inputs": [
        {
          "name": "_purchaseId",
          "type": "bytes32"
        },
        {
          "name": "_userReviewId",
          "type": "bytes32"
        },
        {
          "name": "_itemReviewId",
          "type": "bytes32"
        },
        {
          "name": "_userRating",
          "type": "uint256"
        },
        {
          "name": "_itemRating",
          "type": "uint256"
        }
      ],
      "name": "confirmPurchase",
      "outputs": [],
      "payable": false,
      "type": "function",
      "stateMutability": "nonpayable"
    },
    {
      "constant": true,
      "inputs": [
        {
          "name": "_user",
          "type": "address"
        },
        {
          "name": "_index",
          "type": "uint256"
        }
      ],
      "name": "getUserReviewComment",
      "outputs": [
        {
          "name": "",
          "type": "bytes32"
        }
      ],
      "payable": false,
      "type": "function",
      "stateMutability": "view"
    },
    {
      "constant": true,
      "inputs": [
        {
          "name": "_user",
          "type": "address"
        }
      ],
      "name": "getUserSalesNumber",
      "outputs": [
        {
          "name": "",
          "type": "uint256"
        }
      ],
      "payable": false,
      "type": "function",
      "stateMutability": "view"
    },
    {
      "constant": false,
      "inputs": [
        {
          "name": "_purchaseId",
          "type": "bytes32"
        }
      ],
      "name": "cancelPurchase",
      "outputs": [],
      "payable": false,
      "type": "function",
      "stateMutability": "nonpayable"
    },
    {
      "constant": true,
      "inputs": [],
      "name": "getUserBalance",
      "outputs": [
        {
          "name": "",
          "type": "uint256"
        }
      ],
      "payable": false,
      "type": "function",
      "stateMutability": "view"
    },
    {
      "constant": true,
      "inputs": [
        {
          "name": "_purchaseId",
          "type": "bytes32"
        }
      ],
      "name": "getPurchaseState",
      "outputs": [
        {
          "name": "",
          "type": "uint8"
        }
      ],
      "payable": false,
      "type": "function",
      "stateMutability": "view"
    },
    {
      "constant": true,
      "inputs": [
        {
          "name": "_itemId",
          "type": "bytes32"
        }
      ],
      "name": "getItemReviews",
      "outputs": [
        {
          "name": "",
          "type": "uint256"
        },
        {
          "name": "",
          "type": "uint256"
        },
        {
          "name": "",
          "type": "uint256"
        }
      ],
      "payable": false,
      "type": "function",
      "stateMutability": "view"
    },
    {
      "constant": false,
      "inputs": [
        {
          "name": "_purchaseId",
          "type": "bytes32"
        },
        {
          "name": "_code",
          "type": "bytes32"
        }
      ],
      "name": "setCode",
      "outputs": [],
      "payable": false,
      "type": "function",
      "stateMutability": "nonpayable"
    },
    {
      "constant": true,
      "inputs": [
        {
          "name": "_purchaseId",
          "type": "bytes32"
        }
      ],
      "name": "getPurchaseTimes",
      "outputs": [
        {
          "name": "",
          "type": "uint256"
        },
        {
          "name": "",
          "type": "uint256"
        },
        {
          "name": "",
          "type": "uint256"
        },
        {
          "name": "",
          "type": "uint256"
        },
        {
          "name": "",
          "type": "uint256"
        },
        {
          "name": "",
          "type": "uint256"
        }
      ],
      "payable": false,
      "type": "function",
      "stateMutability": "view"
    },
    {
      "constant": true,
      "inputs": [
        {
          "name": "_itemId",
          "type": "bytes32"
        }
      ],
      "name": "getItemSalesNumber",
      "outputs": [
        {
          "name": "",
          "type": "uint256"
        }
      ],
      "payable": false,
      "type": "function",
      "stateMutability": "view"
    },
    {
      "constant": true,
      "inputs": [
        {
          "name": "_itemId",
          "type": "bytes32"
        },
        {
          "name": "_index",
          "type": "uint256"
        }
      ],
      "name": "getItemReviewComment",
      "outputs": [
        {
          "name": "",
          "type": "bytes32"
        }
      ],
      "payable": false,
      "type": "function",
      "stateMutability": "view"
    },
    {
      "constant": true,
      "inputs": [],
      "name": "confirmationDaysDeadline",
      "outputs": [
        {
          "name": "",
          "type": "uint256"
        }
      ],
      "payable": false,
      "type": "function",
      "stateMutability": "view"
    },
    {
      "inputs": [],
      "payable": false,
      "type": "constructor",
      "stateMutability": "nonpayable"
    },
    {
      "anonymous": false,
      "inputs": [
        {
          "indexed": false,
          "name": "purchaseId",
          "type": "bytes32"
        },
        {
          "indexed": false,
          "name": "buyer",
          "type": "address"
        },
        {
          "indexed": false,
          "name": "seller",
          "type": "address"
        },
        {
          "indexed": false,
          "name": "itemId",
          "type": "bytes32"
        },
        {
          "indexed": false,
          "name": "amount",
          "type": "uint256"
        }
      ],
      "name": "ItemPurchased",
      "type": "event"
    },
    {
      "anonymous": false,
      "inputs": [
        {
          "indexed": false,
          "name": "purchaseId",
          "type": "bytes32"
        },
        {
          "indexed": false,
          "name": "buyer",
          "type": "address"
        },
        {
          "indexed": false,
          "name": "seller",
          "type": "address"
        },
        {
          "indexed": false,
          "name": "itemId",
          "type": "bytes32"
        },
        {
          "indexed": false,
          "name": "code",
          "type": "bytes32"
        }
      ],
      "name": "ItemShipped",
      "type": "event"
    },
    {
      "anonymous": false,
      "inputs": [
        {
          "indexed": false,
          "name": "purchaseId",
          "type": "bytes32"
        },
        {
          "indexed": false,
          "name": "buyer",
          "type": "address"
        },
        {
          "indexed": false,
          "name": "seller",
          "type": "address"
        },
        {
          "indexed": false,
          "name": "itemId",
          "type": "bytes32"
        },
        {
          "indexed": false,
          "name": "amount",
          "type": "uint256"
        }
      ],
      "name": "PurchaseCompleted",
      "type": "event"
    },
    {
      "anonymous": false,
      "inputs": [
        {
          "indexed": false,
          "name": "purchaseId",
          "type": "bytes32"
        },
        {
          "indexed": false,
          "name": "sender",
          "type": "address"
        },
        {
          "indexed": false,
          "name": "buyer",
          "type": "address"
        },
        {
          "indexed": false,
          "name": "seller",
          "type": "address"
        },
        {
          "indexed": false,
          "name": "itemId",
          "type": "bytes32"
        },
        {
          "indexed": false,
          "name": "amount",
          "type": "uint256"
        }
      ],
      "name": "PurchaseCancelled",
      "type": "event"
    },
    {
      "anonymous": false,
      "inputs": [
        {
          "indexed": false,
          "name": "purchaseId",
          "type": "bytes32"
        },
        {
          "indexed": false,
          "name": "buyer",
          "type": "address"
        },
        {
          "indexed": false,
          "name": "seller",
          "type": "address"
        },
        {
          "indexed": false,
          "name": "itemId",
          "type": "bytes32"
        },
        {
          "indexed": false,
          "name": "amount",
          "type": "uint256"
        }
      ],
      "name": "ShippingTimeout",
      "type": "event"
    },
    {
      "anonymous": false,
      "inputs": [
        {
          "indexed": false,
          "name": "purchaseId",
          "type": "bytes32"
        },
        {
          "indexed": false,
          "name": "buyer",
          "type": "address"
        },
        {
          "indexed": false,
          "name": "seller",
          "type": "address"
        },
        {
          "indexed": false,
          "name": "itemId",
          "type": "bytes32"
        },
        {
          "indexed": false,
          "name": "amount",
          "type": "uint256"
        }
      ],
      "name": "ConfirmationTimeout",
      "type": "event"
    },
    {
      "anonymous": false,
      "inputs": [
        {
          "indexed": false,
          "name": "sender",
          "type": "address"
        },
        {
          "indexed": false,
          "name": "amount",
          "type": "uint256"
        }
      ],
      "name": "Withdrawal",
      "type": "event"
    }
  ],
  "bytecode": "0x6060604052341561000f57600080fd5b60008054600160a060020a033316600160a060020a0319909116179055610dee8061003b6000396000f300606060405236156100ee5763ffffffff7c010000000000000000000000000000000000000000000000000000000060003504166312065fe081146100f357806318d0e8b2146101185780631c02708d1461015b57806329c55d8b146101705780633ccfd60b1461018d57806345857074146101a05780634aaefc78146101c257806353f6bedf146101e4578063951f38cf14610203578063b7013dc114610219578063bd6d60d41461022c578063c07dcedb14610266578063c1f364e21461027c578063d7e69e7c14610295578063dfd38546146102e4578063e18a2be1146102fa578063f35bb7a214610313575b600080fd5b34156100fe57600080fd5b610106610326565b60405190815260200160405180910390f35b341561012357600080fd5b610137600160a060020a0360043516610335565b60405180848152602001838152602001828152602001935050505060405180910390f35b341561016657600080fd5b61016e610365565b005b61016e600435600160a060020a036024351660443560643561038e565b341561019857600080fd5b61016e6104ff565b34156101ab57600080fd5b61016e6004356024356044356064356084356105e8565b34156101cd57600080fd5b610106600160a060020a036004351660243561078f565b34156101ef57600080fd5b610106600160a060020a03600435166107ca565b341561020e57600080fd5b61016e6004356107e8565b341561022457600080fd5b610106610ae1565b341561023757600080fd5b610242600435610b00565b6040518082600781111561025257fe5b60ff16815260200191505060405180910390f35b341561027157600080fd5b610137600435610b30565b341561028757600080fd5b61016e600435602435610b57565b34156102a057600080fd5b6102ab600435610c5c565b60405180878152602001868152602001858152602001848152602001838152602001828152602001965050505050505060405180910390f35b34156102ef57600080fd5b610106600435610c93565b341561030557600080fd5b610106600435602435610ca8565b341561031e57600080fd5b610106610cc5565b600160a060020a033016315b90565b600160a060020a031660009081526002602081905260409091206001810154918101546003909101549192909190565b60005433600160a060020a0390811691161461038057600080fd5b600054600160a060020a0316ff5b3383600160a060020a0380831690821614156103a957600080fd5b600083116103b657600080fd5b600160a060020a03851615156103cb57600080fd5b85158015906103d957508315155b15156103e457600080fd5b600034116103f157600080fd5b600086815260016020819052604091829020600481018790559081018054600160a060020a0389811673ffffffffffffffffffffffffffffffffffffffff19928316179092556002830180543393841692169190911774ff0000000000000000000000000000000000000000191674010000000000000000000000000000000000000000179055348083554260068401819055620151808802016005909301929092557fde1e745cd2c9fb380a94905662c70d0ac280fe254a48511d9441b42791ce4207928992899189919051948552600160a060020a039384166020860152919092166040808501919091526060840192909252608083015260a0909101905180910390a1505050505050565b600160a060020a033316600090815260026020526040812060050154819011801561054a5750600160a060020a03338116600090815260026020526040902060050154309091163110155b151561055557600080fd5b50600160a060020a033316600081815260026020526040808220600501805492905590919082156108fc0290839051600060405180830381858888f1935050505015156105a157600080fd5b7f7fcf532c15f0a6db0bd6d0e038bea71d30d808c7d98cb3bf7268a95bf5081b653382604051600160a060020a03909216825260208201526040908101905180910390a150565b600085815260016020526040902060020154600160a060020a03908116903316811461061357600080fd5b85151561061f57600080fd5b61062c6000878685610ccb565b6106396001878786610ccb565b60008681526001602081815260408084208084018054600160a060020a0390811687526002808652848820600490810180548901905580850154895260038752858920018054909701909655426009840155858301805474ff000000000000000000000000000000000000000019167403000000000000000000000000000000000000000017905591549054909116855292909152909120600501546106de91610d65565b60008781526001602081815260408084208084018054600160a060020a0390811687526002855283872060050197909755948c9052929091529154600482015491547f907af99da82179acf7e0d9c5c472e4062a49dcf09c47f201bd6f7006fcb638f3948b9433949390911692919051948552600160a060020a039384166020860152919092166040808501919091526060840192909252608083015260a0909101905180910390a1505050505050565b600160a060020a03821660009081526002602052604081206003018054839081106107b657fe5b906000526020600020900154905092915050565b600160a060020a031660009081526002602052604090206004015490565b600081815260016020526040908190209061018090519081016040908152825482526001830154600160a060020a039081166020840152600284015490811691830191909152909190606083019074010000000000000000000000000000000000000000900460ff16600781111561085c57fe5b600781111561086757fe5b815260038201546020820152600482015460408201526005820154606082015260068201546080820152600782015460a0820152600882015460c0820152600982015460e0820152600a9091015461010090910152600180826060015160078111156108cf57fe5b146108d957600080fd5b60008381526001602081905260409091206002810154910154600160a060020a0391821691908116903316821480610922575080600160a060020a031633600160a060020a0316145b151561092d57600080fd5b60008581526001602052604090206002015433600160a060020a039081169116141561099c576000858152600160205260409020600201805474ff00000000000000000000000000000000000000001916740400000000000000000000000000000000000000001790556109e1565b6000858152600160205260409020600201805474ff00000000000000000000000000000000000000001916740500000000000000000000000000000000000000001790555b60008581526001602090815260408083204260088201558054600291820154600160a060020a03168552925290912060050154610a239163ffffffff610d6516565b600086815260016020818152604080842060028181018054600160a060020a03908116885291855283872060050197909755948b905291839052935491810154600482015491547f3db4f369516026061ef481779937fff5eeba079d3103391f76c91cbac8cd3f8a958b953395811694931692919051958652600160a060020a039485166020870152928416604080870191909152919093166060850152608084019290925260a083015260c0909101905180910390a15050505050565b600160a060020a03331660009081526002602052604090206005015490565b60009081526001602052604090206002015474010000000000000000000000000000000000000000900460ff1690565b60008181526003602081905260409091206001810154600282015491909201549193909250565b60008281526001602081905260409091200154600160a060020a039081169033168114610b8357600080fd5b811515610b8f57600080fd5b600083815260016020526040908190206003810184905560028101805474ff000000000000000000000000000000000000000019167402000000000000000000000000000000000000000017908190554260078301556004909101547fb44d4c558a8493b168dbfb2c7a42c128aeddfb301db4eb4a4f7922a814e8063e928692600160a060020a0316913391879051948552600160a060020a039384166020860152919092166040808501919091526060840192909252608083015260a0909101905180910390a1505050565b600090815260016020526040902060058101546006820154600783015460088401546009850154600a909501549395929491939092565b60009081526003602052604090206004015490565b60008281526003602081905260408220018054839081106107b657fe5b60045481565b60008415610d0157506000838152600160208181526040808420830154600160a060020a03168452600290915290912001610d23565b5060008381526001602081815260408084206004015484526003909152909120015b8115610d3b5780546001908101825581018054830190555b60028101805460018101610d4f8382610d7b565b5060009182526020909120018390555050505050565b600082820183811015610d7457fe5b9392505050565b815481835581811511610d9f57600083815260209020610d9f918101908301610da4565b505050565b61033291905b80821115610dbe5760008155600101610daa565b50905600a165627a7a7230582039ea62751c93ff58a9e0b0e674cf41c3fe1083d34e323d09a217170e933282550029",
  "source": "pragma solidity ^0.4.17; //We have to specify what version of compiler this code will use\n\nimport '../lib/SafeMath.sol';\n\ncontract Escrow {\n  using SafeMath for uint256;\n\n  enum Status {Pending, Purchased, Shipped, Completed, BuyerCancelled, SellerCancelled, SellerShippingTimeOut, BuyerConfirmationTimeOut}\n  // enum Category {Good, Digital, Service, Auction}\n\n  struct Purchase {\n    uint256 amount;\n    address seller;\n    address buyer;\n    Status status;\n    bytes32 code;\n    bytes32 itemId;\n    // Category category;\n    uint shippingDaysDeadline;\n    uint purchasedTime;\n    uint shippedTime;\n    uint cancelTime;\n    uint completedTime;\n    uint timeoutTime;\n  }\n\n  struct Review {\n    uint total;\n    uint rating;\n    bytes32[] comments;\n  }\n\n  struct User {\n    address wallet;\n    Review review;\n    uint salesNumber;\n    uint256 balance;\n  }\n\n  struct Item {\n    bytes32 itemId;\n    Review review;\n    uint salesNumber;\n  }\n\n  address owner;\n  mapping(bytes32 => Purchase) purchases;\n  mapping(address => User) users;\n  mapping(bytes32 => Item) items;\n  uint public confirmationDaysDeadline;\n\n  // bytes32[] private pendingPurchases;\n  // bytes32[] private pendingPurchasesToDelete;\n  // uint private numPendingPurchasesToDelete = 0;\n\n  event ItemPurchased(bytes32 purchaseId, address buyer, address seller, bytes32 itemId, uint256 amount);\n  event ItemShipped(bytes32 purchaseId, address buyer, address seller, bytes32 itemId, bytes32 code);\n  event PurchaseCompleted(bytes32 purchaseId, address buyer, address seller, bytes32 itemId, uint256 amount);\n  event PurchaseCancelled(bytes32 purchaseId, address sender, address buyer, address seller, bytes32 itemId, uint256 amount);\n  event ShippingTimeout(bytes32 purchaseId, address buyer, address seller, bytes32 itemId, uint256 amount);\n  event ConfirmationTimeout(bytes32 purchaseId, address buyer, address seller, bytes32 itemId, uint256 amount);\n  event Withdrawal(address sender, uint256 amount);\n\n  function Escrow() public {\n    owner = msg.sender;\n  }\n\n\n  /**\n   * @dev Guarantee that the sender is the creator of the contract (the one who deployed it)\n   */\n  modifier onlyOwner() {\n    require(msg.sender == owner);\n    _;\n  }\n\n  /**\n   * @dev Guarantee that the sender is the buyer of the purchase\n   * @param _buyer wallet address of buyer\n   */\n  modifier onlyBuyer(address _buyer) {\n    require(msg.sender == _buyer);\n    _;\n  }\n\n  /**\n   * @dev Guarantee that the sender is the Seller of the purchase\n   * @param _seller wallet address of seller\n   */\n  modifier onlySeller(address _seller) {\n    require(msg.sender == _seller);\n    _;\n  }\n\n  /**\n   * @dev Guarantee that the sender is either a buyer or seller of his transaction\n   * @param _buyer wallet address of buyer\n   * @param _seller wallet address of seller\n   */\n  modifier onlyBuyerOrSeller(address _buyer, address _seller) {\n    require(msg.sender == _buyer || msg.sender == _seller);\n    _;\n  }\n\n  /**\n   * @dev Prevent a buyer from buying an item he listed himself\n   * @param _buyer wallet address of buyer\n   * @param _seller wallet address of seller\n   */\n  modifier preventSelfBuy(address _buyer, address _seller) {\n    require(_buyer != _seller);\n    _;\n  }\n\n  /**\n   * @dev Require that current state of purchase \"_purchaseState\" is equal to \"_tmpState\"\n   * @param _purchase current purchase\n   * @param _requirePurchaseState purchase status we want the purchase to be equal to\n   */\n  modifier onlyForPurchaseState(Purchase _purchase, Status _requirePurchaseState) {\n    require(_purchase.status == _requirePurchaseState);\n    _;\n  }\n\n  /**\n   * @dev Buyer Purchase an item '_itemId' from Seller (_seller) - State of the purchase : \"Purchased\"\n   * @param _purchaseId ID of _purchase\n   * @param _seller wallet address of _seller\n   * @param _itemId ID of _item\n   * @param _shippingDaysDeadline seller needs to ship the item within _shippingDaysDeadline days after purchase or purchase will be timeout and cancelled\n   */\n  function purchase(bytes32 _purchaseId, address _seller, bytes32 _itemId, uint _shippingDaysDeadline)\n  preventSelfBuy(msg.sender, _seller)\n  payable public\n  {\n    require(_shippingDaysDeadline > 0);\n    require(_seller != 0);\n    require(_purchaseId != '' && _itemId != '');\n    require(msg.value > 0);\n    purchases[_purchaseId].itemId = _itemId;\n    purchases[_purchaseId].seller = _seller;\n    purchases[_purchaseId].buyer = msg.sender;\n    purchases[_purchaseId].status = Status.Purchased;\n    purchases[_purchaseId].amount = msg.value;\n    purchases[_purchaseId].purchasedTime = now;\n    purchases[_purchaseId].shippingDaysDeadline = now + _shippingDaysDeadline * 1 days;\n    //pendingPurchases.push(_purchaseId);\n    ItemPurchased(_purchaseId, msg.sender, _seller, _itemId, msg.value);\n  }\n\n  /**\n   * @dev Seller send the code to Buyer (Code can be a tracking number, a digital code, a coupon) [ State of the purchase : \"Shipped\"]\n   * @param _purchaseId [ID of purchaseID in Database]\n   * @param _code [shipping tracking number, digital code, coupon, etc..]\n   */\n  function setCode(bytes32 _purchaseId, bytes32 _code)\n  onlySeller(purchases[_purchaseId].seller)\n  public\n  {\n    require(_code != '');\n    purchases[_purchaseId].code = _code;\n    purchases[_purchaseId].status = Status.Shipped;\n    purchases[_purchaseId].shippedTime = now;\n    ItemShipped(_purchaseId, purchases[_purchaseId].buyer, msg.sender, purchases[_purchaseId].itemId, _code);\n  }\n\n  /**\n   * @dev Buyer confirms receive the code from the Seller - Balance is added to Seller mapping [State of the purchase : \"Completed\"]\n   * @param _purchaseId   [ID of purchaseID in Database]\n   * @param  _userReviewId [ID of Review in Database]\n   * @param _itemReviewId [ID of Review in Database]\n   * @param _userRating   [Value between 1-5]\n   * @param _itemRating   [Value between 1-5]\n   */\n  function confirmPurchase(bytes32 _purchaseId, bytes32 _userReviewId, bytes32 _itemReviewId, uint _userRating, uint _itemRating)\n  onlyBuyer(purchases[_purchaseId].buyer)\n  public\n  {\n    require(_purchaseId != 0);\n    // Delete Purchase from list of pending purchase\n    // deleteOnePurchaseFromPending(_purchaseId);\n\n    // Set user & item review & rating\n    setReview(false, _purchaseId, _itemReviewId, _itemRating);\n    setReview(true, _purchaseId, _userReviewId, _userRating);\n\n    // Set user & item total sales Number\n    users[purchases[_purchaseId].seller].salesNumber += 1;\n    items[purchases[_purchaseId].itemId].salesNumber += 1;\n\n    purchases[_purchaseId].completedTime = now;\n    purchases[_purchaseId].status = Status.Completed;\n    users[purchases[_purchaseId].seller].balance = users[purchases[_purchaseId].seller].balance.add(purchases[_purchaseId].amount);\n    PurchaseCompleted(_purchaseId, msg.sender, purchases[_purchaseId].seller, purchases[_purchaseId].itemId, purchases[_purchaseId].amount);\n  }\n\n  /**\n   * @dev Set Item or Users's review & rating\n   * @param isUserReview [Distinguish if we're setting an Item or an User Review]\n   * @param _purchaseId  [ID of purchase in Database]\n   * @param _reviewId    [ID of Review in Database]\n   * @param _rating      [Value between 1-5]\n   */\n  function setReview(bool isUserReview, bytes32 _purchaseId, bytes32 _reviewId, uint _rating) private {\n    Review review;\n    if (isUserReview) {\n      review = users[purchases[_purchaseId].seller].review;\n    } else {\n      review = items[purchases[_purchaseId].itemId].review;\n    }\n\n    // Test if rating was provided\n    if (_rating != 0) {\n      review.total += 1;\n      review.rating += _rating;\n    }\n    // Test if review was provided\n    if (_reviewId.length != 0) {\n      review.comments.push(_reviewId);\n    }\n  }\n\n  /**\n   * @dev Cancel a Purchase by a buyer or a seller - can only happen before the item has been shipped\n   * @param _purchaseId   [ID of purchase in Database]\n   */\n  function cancelPurchase(bytes32 _purchaseId)\n  onlyForPurchaseState(purchases[_purchaseId], Status.Purchased)\n  onlyBuyerOrSeller(purchases[_purchaseId].buyer, purchases[_purchaseId].seller)\n  public\n  {\n    if (purchases[_purchaseId].buyer == msg.sender) {\n      purchases[_purchaseId].status = Status.BuyerCancelled;\n    } else {\n      purchases[_purchaseId].status = Status.SellerCancelled;\n    }\n    purchases[_purchaseId].cancelTime = now;\n    users[purchases[_purchaseId].buyer].balance = users[purchases[_purchaseId].buyer].balance.add(purchases[_purchaseId].amount);\n    PurchaseCancelled(\n      _purchaseId,\n      msg.sender,\n      purchases[_purchaseId].buyer,\n      purchases[_purchaseId].seller,\n      purchases[_purchaseId].itemId,\n      purchases[_purchaseId].amount\n    );\n    //deleteOnePurchaseFromPending(_purchaseId);\n  }\n\n  /**\n   * @dev Get msg.sender current balance (money available to be withdrawn anytime)\n   * @return uint [msg.sender balance]\n   */\n  function getUserBalance() constant public returns (uint) {\n    return users[msg.sender].balance;\n  }\n\n\n  /**\n   * @dev Withdraw your current balance (Contract) to your own wallet\n   */\n  function withdraw() public {\n    require(\n      users[msg.sender].balance > 0 &&\n      this.balance >= users[msg.sender].balance)\n    ;\n    uint256 amount = users[msg.sender].balance;\n    users[msg.sender].balance = 0;\n    msg.sender.transfer(amount);\n    Withdrawal(msg.sender, amount);\n  }\n\n\n  /**\n   * @dev Get All Status Time for a Purchase\n   * @param _purchaseId [ID of purchase in database]\n   * @return uint shippingDaysDeadline [Block time when purchase will be considered in shipping Timeout]\n   * @return uint purchasedTime [Block time when purchase state reached Status.Purchased]\n   * @return uint shippedTime [Block time when purchase state reached Status.Shipped]\n   * @return uint cancelTime [Block time when purchase state reached Status.Cancelled]\n   * @return uint completedTime [Block time when purchase state reached Status.Completed]\n   * @return uint timeoutTime [Block time when a timeout occured (shipping/confirmation timeout)]\n   */\n  function getPurchaseTimes(bytes32 _purchaseId) constant public returns (uint, uint, uint, uint, uint, uint) {\n    return (purchases[_purchaseId].shippingDaysDeadline,\n            purchases[_purchaseId].purchasedTime,\n            purchases[_purchaseId].shippedTime,\n            purchases[_purchaseId].cancelTime,\n            purchases[_purchaseId].completedTime,\n            purchases[_purchaseId].timeoutTime);\n  }\n\n  /**\n   * @dev Get current state of a purchase\n   * @param _purchaseId [Purchase ID in the Database]\n   * @return Status [Purchase State]\n   */\n  function getPurchaseState(bytes32 _purchaseId) constant public returns (Status) {\n    return purchases[_purchaseId].status;\n  }\n\n  /**\n   *  Get seller total number of sales he made\n   * @param _user [wallet address of user]\n   * @return uint [number of total seller's sales]\n   */\n  function getUserSalesNumber(address _user) constant public returns (uint) {\n    return users[_user].salesNumber;\n  }\n\n  /**\n   * @dev Get total number item sold\n   * @param _itemId [ID of item in database]\n   * @return uint [number of total item sold]\n   */\n  function getItemSalesNumber(bytes32 _itemId) constant public returns (uint) {\n    return items[_itemId].salesNumber;\n  }\n\n  /**\n   * @dev Get a seller ratings + reviews\n   * @param _user [address of User wallet in database]\n   * @return uint [Total Number of Rating]\n   * @return uint [Accumulated value of all user ratings]\n   * @return uint [Total Number of user reviews]\n   */\n  function getUserReviews(address _user) constant public returns (uint, uint, uint) {\n    return (users[_user].review.total,\n            users[_user].review.rating,\n            users[_user].review.comments.length);\n  }\n\n  /**\n   * @dev Get a single review for a Seller\n   * @param _user [address of User wallet in database]\n   * @param _index [index of the user review in the comments array]\n   * @return bytes32 [ID of the User Review in Database]\n   */\n  function getUserReviewComment(address _user, uint _index) constant public returns (bytes32) {\n    return users[_user].review.comments[_index];\n  }\n\n  /**\n   * @dev Get a single item its ratings + reviews\n   * @param _itemId [ID of Item in database]\n   * @return uint [Total Number of item ratings]\n   * @return uint [Accumulated value of all item ratings]\n   * @return uint [Total Number of item reviews]\n   */\n  function getItemReviews(bytes32 _itemId) constant public returns (uint, uint, uint) {\n    return (items[_itemId].review.total,\n            items[_itemId].review.rating,\n            items[_itemId].review.comments.length);\n  }\n\n  /**\n   * @dev Get a single item review\n   * @param _itemId [ID of item in database]\n   * @param _index [index of the item review in the comments array]\n   * @return bytes32 [ID of the User Review in Database]\n   */\n  function getItemReviewComment(bytes32 _itemId, uint _index) constant public returns (bytes32) {\n    return items[_itemId].review.comments[_index];\n  }\n\n  // Delete a purchase from the list of pending purchases\n  // i.e : when a purchase is complete or cancel\n  // function deleteOnePurchaseFromPending(bytes32 _purchaseId) private {\n  //   // Index == -1 means that the item doesn't exist in the array\n  //   require(\n  //     (IndexOfPurchase(_purchaseId) != uint(-1)) &&\n  //     (IndexOfPurchase(_purchaseId) < pendingPurchases.length)\n  //   );\n\n  //   delete pendingPurchases[index];\n  //   if (pendingPurchases.length >= 2) {\n  //     pendingPurchases[index] = pendingPurchases[pendingPurchases.length - 1];\n  //     delete pendingPurchases[pendingPurchases.length - 1];\n  //   }\n  //   pendingPurchases.length--;\n\n  //   require(IndexOfPurchase(_purchaseId) == uint(-1));\n  // }\n\n   // Finds the index of a given purchaseId in the pending purchases array.\n  // function IndexOfPurchase(bytes32 _purchaseId) constant public returns(uint) {\n  //   for (uint i = 0; i < pendingPurchases.length; i++) {\n  //     if (pendingPurchases[i] == _purchaseId) {\n  //       return i;\n  //     }\n  //   }\n  //   // Index not found\n  //   return uint(-1);\n  // }\n\n  // Main auto cancel function\n  //   -- cancel shipping Timeout orders\n  //   -- cancel confirmation timeout orders\n  // function cancelTimeoutOrders() onlyOwner public {\n  //   for (uint i = 0; i < pendingPurchases.length; i++) {\n  //     // Automatically cancel orders that haven't been shipped before the deadline\n  //     cancelShippingTimeoutOrders(pendingPurchases[i]);\n  //     // Automatically cancel orders that haven't been shipped before the deadline\n  //     cancelConfirmationTimeoutOrders(pendingPurchases[i]);\n  //   }\n  //   clearPendingPurchases();\n  // }\n\n  // This function will remove all purchases included in pendingPurchasesToDelete array from pendingPurchases\n  // Purchase found in pendingPurchasesToDelete : means that the purchase state is not pending anymore\n  // function clearPendingPurchases() private {\n  //   for (uint i = 0; i < numPendingPurchasesToDelete; i++) {\n  //     deleteOnePurchaseFromPending(pendingPurchasesToDelete[i]);\n  //   }\n  //   numPendingPurchasesToDelete = 0;\n  // }\n\n  // Automatically cancel orders that haven't been shipped before the deadline\n  // function cancelShippingTimeoutOrders(bytes32 _purchaseId) private {\n  //   if ((purchases[_purchaseId].shippingDaysDeadline <  now) && (purchases[_purchaseId].status == Status.Purchased)) {\n  //     if (purchases[_purchaseId].buyer.send(purchases[_purchaseId].amount)) {\n  //       purchases[_purchaseId].status = Status.SellerShippingTimeOut;\n  //       purchases[_purchaseId].amount = 0;\n  //       if (numPendingPurchasesToDelete == pendingPurchasesToDelete.length) {\n  //         pendingPurchasesToDelete.length += 1;\n  //       }\n  //       pendingPurchasesToDelete[numPendingPurchasesToDelete] = _purchaseId;\n  //       numPendingPurchasesToDelete += 1;\n  //       purchases[_purchaseId].timeoutTime = now;\n  //       ShippingTimeout(_purchaseId, purchases[_purchaseId].buyer, purchases[_purchaseId].seller, purchases[_purchaseId].itemId);\n  //     }\n  //   }\n  // }\n\n  // Automatically confirm orders that haven't been confirmed by the users before the deadline\n  // function cancelConfirmationTimeoutOrders(bytes32 _purchaseId) private {\n  //   if (((purchases[_purchaseId].shippedTime + confirmationDaysDeadline * 1 days) <  now) && (purchases[_purchaseId].status == Status.Shipped)) {\n  //     if (purchases[_purchaseId].seller.send(purchases[_purchaseId].amount)) {\n  //       purchases[_purchaseId].status = Status.BuyerConfirmationTimeOut;\n  //       purchases[_purchaseId].amount = 0;\n  //       if (numPendingPurchasesToDelete == pendingPurchasesToDelete.length) {\n  //         pendingPurchasesToDelete.length += 1;\n  //       }\n  //       pendingPurchasesToDelete[numPendingPurchasesToDelete] = _purchaseId;\n  //       numPendingPurchasesToDelete += 1;\n  //       purchases[_purchaseId].timeoutTime = now;\n  //       ConfirmationTimeout(_purchaseId, purchases[_purchaseId].buyer, purchases[_purchaseId].seller, purchases[_purchaseId].itemId);\n  //     }\n  //   }\n  // }\n\n  // Set a global number of days limitation to confirm a purchase after shipping before it gets automatically confirmed\n  // function setConfirmationDaysDeadline(uint _day) onlyOwner public {\n  //   confirmationDaysDeadline = _day;\n  // }\n\n  /**\n   * @dev Get total balance of the Escrow contract\n   * @return uint [total balance of Escrow contract]\n   */\n  function getBalance() constant public returns (uint) {\n    return this.balance;\n  }\n\n  /**\n   * @dev Kill the contract and send all the balance to the contract owner\n   */\n  function killContract() onlyOwner public {\n    selfdestruct(owner);\n  }\n}\n",
  "sourcePath": "/Users/fcheng/workspace/Personal/simba-contracts/contracts/escrows/Escrow.sol",
  "schemaVersion": "1.0.0",
  "updatedAt": "2017-10-15T19:17:13.911Z"
}