{
  "contractName": "Escrow",
  "abi": [
    {
      "constant": true,
      "inputs": [],
      "name": "getBalance",
      "outputs": [
        {
          "name": "",
          "type": "uint256"
        }
      ],
      "payable": false,
      "stateMutability": "view",
      "type": "function"
    },
    {
      "constant": true,
      "inputs": [
        {
          "name": "_user",
          "type": "address"
        }
      ],
      "name": "getUserReviews",
      "outputs": [
        {
          "name": "",
          "type": "uint256"
        },
        {
          "name": "",
          "type": "uint256"
        },
        {
          "name": "",
          "type": "uint256"
        }
      ],
      "payable": false,
      "stateMutability": "view",
      "type": "function"
    },
    {
      "constant": false,
      "inputs": [],
      "name": "killContract",
      "outputs": [],
      "payable": false,
      "stateMutability": "nonpayable",
      "type": "function"
    },
    {
      "constant": false,
      "inputs": [
        {
          "name": "_purchaseId",
          "type": "bytes32"
        },
        {
          "name": "_seller",
          "type": "address"
        },
        {
          "name": "_itemId",
          "type": "bytes32"
        },
        {
          "name": "_shippingDaysDeadline",
          "type": "uint256"
        }
      ],
      "name": "purchase",
      "outputs": [],
      "payable": true,
      "stateMutability": "payable",
      "type": "function"
    },
    {
      "constant": false,
      "inputs": [],
      "name": "withdraw",
      "outputs": [],
      "payable": false,
      "stateMutability": "nonpayable",
      "type": "function"
    },
    {
      "constant": false,
      "inputs": [
        {
          "name": "_purchaseId",
          "type": "bytes32"
        },
        {
          "name": "_userReviewId",
          "type": "bytes32"
        },
        {
          "name": "_itemReviewId",
          "type": "bytes32"
        },
        {
          "name": "_userRating",
          "type": "uint256"
        },
        {
          "name": "_itemRating",
          "type": "uint256"
        }
      ],
      "name": "confirmPurchase",
      "outputs": [],
      "payable": false,
      "stateMutability": "nonpayable",
      "type": "function"
    },
    {
      "constant": true,
      "inputs": [
        {
          "name": "_user",
          "type": "address"
        }
      ],
      "name": "getUserBalance",
      "outputs": [
        {
          "name": "",
          "type": "uint256"
        }
      ],
      "payable": false,
      "stateMutability": "view",
      "type": "function"
    },
    {
      "constant": true,
      "inputs": [
        {
          "name": "_user",
          "type": "address"
        },
        {
          "name": "_index",
          "type": "uint256"
        }
      ],
      "name": "getUserReviewComment",
      "outputs": [
        {
          "name": "",
          "type": "bytes32"
        }
      ],
      "payable": false,
      "stateMutability": "view",
      "type": "function"
    },
    {
      "constant": true,
      "inputs": [
        {
          "name": "_user",
          "type": "address"
        }
      ],
      "name": "getUserSalesNumber",
      "outputs": [
        {
          "name": "",
          "type": "uint256"
        }
      ],
      "payable": false,
      "stateMutability": "view",
      "type": "function"
    },
    {
      "constant": true,
      "inputs": [],
      "name": "owner",
      "outputs": [
        {
          "name": "",
          "type": "address"
        }
      ],
      "payable": false,
      "stateMutability": "view",
      "type": "function"
    },
    {
      "constant": false,
      "inputs": [
        {
          "name": "_purchaseId",
          "type": "bytes32"
        }
      ],
      "name": "cancelPurchase",
      "outputs": [],
      "payable": false,
      "stateMutability": "nonpayable",
      "type": "function"
    },
    {
      "constant": true,
      "inputs": [
        {
          "name": "_purchaseId",
          "type": "bytes32"
        }
      ],
      "name": "getPurchaseState",
      "outputs": [
        {
          "name": "",
          "type": "uint8"
        }
      ],
      "payable": false,
      "stateMutability": "view",
      "type": "function"
    },
    {
      "constant": true,
      "inputs": [
        {
          "name": "_itemId",
          "type": "bytes32"
        }
      ],
      "name": "getItemReviews",
      "outputs": [
        {
          "name": "",
          "type": "uint256"
        },
        {
          "name": "",
          "type": "uint256"
        },
        {
          "name": "",
          "type": "uint256"
        }
      ],
      "payable": false,
      "stateMutability": "view",
      "type": "function"
    },
    {
      "constant": false,
      "inputs": [
        {
          "name": "_purchaseId",
          "type": "bytes32"
        },
        {
          "name": "_code",
          "type": "bytes32"
        }
      ],
      "name": "setCode",
      "outputs": [],
      "payable": false,
      "stateMutability": "nonpayable",
      "type": "function"
    },
    {
      "constant": true,
      "inputs": [
        {
          "name": "_purchaseId",
          "type": "bytes32"
        }
      ],
      "name": "getPurchaseTimes",
      "outputs": [
        {
          "name": "",
          "type": "uint256"
        },
        {
          "name": "",
          "type": "uint256"
        },
        {
          "name": "",
          "type": "uint256"
        },
        {
          "name": "",
          "type": "uint256"
        },
        {
          "name": "",
          "type": "uint256"
        },
        {
          "name": "",
          "type": "uint256"
        }
      ],
      "payable": false,
      "stateMutability": "view",
      "type": "function"
    },
    {
      "constant": true,
      "inputs": [
        {
          "name": "_itemId",
          "type": "bytes32"
        }
      ],
      "name": "getItemSalesNumber",
      "outputs": [
        {
          "name": "",
          "type": "uint256"
        }
      ],
      "payable": false,
      "stateMutability": "view",
      "type": "function"
    },
    {
      "constant": true,
      "inputs": [
        {
          "name": "_itemId",
          "type": "bytes32"
        },
        {
          "name": "_index",
          "type": "uint256"
        }
      ],
      "name": "getItemReviewComment",
      "outputs": [
        {
          "name": "",
          "type": "bytes32"
        }
      ],
      "payable": false,
      "stateMutability": "view",
      "type": "function"
    },
    {
      "constant": false,
      "inputs": [
        {
          "name": "newOwner",
          "type": "address"
        }
      ],
      "name": "transferOwnership",
      "outputs": [],
      "payable": false,
      "stateMutability": "nonpayable",
      "type": "function"
    },
    {
      "constant": true,
      "inputs": [],
      "name": "confirmationDaysDeadline",
      "outputs": [
        {
          "name": "",
          "type": "uint256"
        }
      ],
      "payable": false,
      "stateMutability": "view",
      "type": "function"
    },
    {
      "inputs": [],
      "payable": false,
      "stateMutability": "nonpayable",
      "type": "constructor"
    },
    {
      "anonymous": false,
      "inputs": [
        {
          "indexed": false,
          "name": "purchaseId",
          "type": "bytes32"
        },
        {
          "indexed": false,
          "name": "buyer",
          "type": "address"
        },
        {
          "indexed": false,
          "name": "seller",
          "type": "address"
        },
        {
          "indexed": false,
          "name": "itemId",
          "type": "bytes32"
        },
        {
          "indexed": false,
          "name": "amount",
          "type": "uint256"
        }
      ],
      "name": "ItemPurchased",
      "type": "event"
    },
    {
      "anonymous": false,
      "inputs": [
        {
          "indexed": false,
          "name": "purchaseId",
          "type": "bytes32"
        },
        {
          "indexed": false,
          "name": "buyer",
          "type": "address"
        },
        {
          "indexed": false,
          "name": "seller",
          "type": "address"
        },
        {
          "indexed": false,
          "name": "itemId",
          "type": "bytes32"
        },
        {
          "indexed": false,
          "name": "code",
          "type": "bytes32"
        }
      ],
      "name": "ItemShipped",
      "type": "event"
    },
    {
      "anonymous": false,
      "inputs": [
        {
          "indexed": false,
          "name": "purchaseId",
          "type": "bytes32"
        },
        {
          "indexed": false,
          "name": "buyer",
          "type": "address"
        },
        {
          "indexed": false,
          "name": "seller",
          "type": "address"
        },
        {
          "indexed": false,
          "name": "itemId",
          "type": "bytes32"
        },
        {
          "indexed": false,
          "name": "amount",
          "type": "uint256"
        }
      ],
      "name": "PurchaseCompleted",
      "type": "event"
    },
    {
      "anonymous": false,
      "inputs": [
        {
          "indexed": false,
          "name": "purchaseId",
          "type": "bytes32"
        },
        {
          "indexed": false,
          "name": "sender",
          "type": "address"
        },
        {
          "indexed": false,
          "name": "buyer",
          "type": "address"
        },
        {
          "indexed": false,
          "name": "seller",
          "type": "address"
        },
        {
          "indexed": false,
          "name": "itemId",
          "type": "bytes32"
        },
        {
          "indexed": false,
          "name": "amount",
          "type": "uint256"
        }
      ],
      "name": "PurchaseCancelled",
      "type": "event"
    },
    {
      "anonymous": false,
      "inputs": [
        {
          "indexed": false,
          "name": "purchaseId",
          "type": "bytes32"
        },
        {
          "indexed": false,
          "name": "buyer",
          "type": "address"
        },
        {
          "indexed": false,
          "name": "seller",
          "type": "address"
        },
        {
          "indexed": false,
          "name": "itemId",
          "type": "bytes32"
        },
        {
          "indexed": false,
          "name": "amount",
          "type": "uint256"
        }
      ],
      "name": "ShippingTimeout",
      "type": "event"
    },
    {
      "anonymous": false,
      "inputs": [
        {
          "indexed": false,
          "name": "purchaseId",
          "type": "bytes32"
        },
        {
          "indexed": false,
          "name": "buyer",
          "type": "address"
        },
        {
          "indexed": false,
          "name": "seller",
          "type": "address"
        },
        {
          "indexed": false,
          "name": "itemId",
          "type": "bytes32"
        },
        {
          "indexed": false,
          "name": "amount",
          "type": "uint256"
        }
      ],
      "name": "ConfirmationTimeout",
      "type": "event"
    },
    {
      "anonymous": false,
      "inputs": [
        {
          "indexed": false,
          "name": "sender",
          "type": "address"
        },
        {
          "indexed": false,
          "name": "amount",
          "type": "uint256"
        }
      ],
      "name": "Withdrawal",
      "type": "event"
    },
    {
      "anonymous": false,
      "inputs": [
        {
          "indexed": true,
          "name": "previousOwner",
          "type": "address"
        },
        {
          "indexed": true,
          "name": "newOwner",
          "type": "address"
        }
      ],
      "name": "OwnershipTransferred",
      "type": "event"
    }
  ],
  "bytecode": "0x6060604052341561000f57600080fd5b336000806101000a81548173ffffffffffffffffffffffffffffffffffffffff021916908373ffffffffffffffffffffffffffffffffffffffff160217905550600f600481905550612039806100666000396000f300606060405260043610610107576000357c0100000000000000000000000000000000000000000000000000000000900463ffffffff16806312065fe01461010c57806318d0e8b2146101355780631c02708d1461019057806329c55d8b146101a55780633ccfd60b146101f6578063458570741461020b578063477348921461025e5780634aaefc78146102ab57806353f6bedf146103095780638da5cb5b14610356578063951f38cf146103ab578063bd6d60d4146103d2578063c07dcedb1461041b578063c1f364e214610464578063d7e69e7c14610498578063dfd38546146104f6578063e18a2be114610531578063f2fde38b1461057d578063f35bb7a2146105b6575b600080fd5b341561011757600080fd5b61011f6105df565b6040518082815260200191505060405180910390f35b341561014057600080fd5b61016c600480803573ffffffffffffffffffffffffffffffffffffffff16906020019091905050610659565b60405180848152602001838152602001828152602001935050505060405180910390f35b341561019b57600080fd5b6101a3610740565b005b6101f460048080356000191690602001909190803573ffffffffffffffffffffffffffffffffffffffff16906020019091908035600019169060200190919080359060200190919050506107d5565b005b341561020157600080fd5b610209610ad2565b005b341561021657600080fd5b61025c6004808035600019169060200190919080356000191690602001909190803560001916906020019091908035906020019091908035906020019091905050610cc4565b005b341561026957600080fd5b610295600480803573ffffffffffffffffffffffffffffffffffffffff16906020019091905050611121565b6040518082815260200191505060405180910390f35b34156102b657600080fd5b6102eb600480803573ffffffffffffffffffffffffffffffffffffffff1690602001909190803590602001909190505061116d565b60405180826000191660001916815260200191505060405180910390f35b341561031457600080fd5b610340600480803573ffffffffffffffffffffffffffffffffffffffff169060200190919050506111d5565b6040518082815260200191505060405180910390f35b341561036157600080fd5b610369611221565b604051808273ffffffffffffffffffffffffffffffffffffffff1673ffffffffffffffffffffffffffffffffffffffff16815260200191505060405180910390f35b34156103b657600080fd5b6103d0600480803560001916906020019091905050611246565b005b34156103dd57600080fd5b6103f76004808035600019169060200190919050506118cb565b6040518082600781111561040757fe5b60ff16815260200191505060405180910390f35b341561042657600080fd5b610440600480803560001916906020019091905050611900565b60405180848152602001838152602001828152602001935050505060405180910390f35b341561046f57600080fd5b6104966004808035600019169060200190919080356000191690602001909190505061197b565b005b34156104a357600080fd5b6104bd600480803560001916906020019091905050611bba565b60405180878152602001868152602001858152602001848152602001838152602001828152602001965050505050505060405180910390f35b341561050157600080fd5b61051b600480803560001916906020019091905050611c92565b6040518082815260200191505060405180910390f35b341561053c57600080fd5b61055f600480803560001916906020019091908035906020019091905050611cba565b60405180826000191660001916815260200191505060405180910390f35b341561058857600080fd5b6105b4600480803573ffffffffffffffffffffffffffffffffffffffff16906020019091905050611cfe565b005b34156105c157600080fd5b6105c9611e53565b6040518082815260200191505060405180910390f35b60008060009054906101000a900473ffffffffffffffffffffffffffffffffffffffff1673ffffffffffffffffffffffffffffffffffffffff163373ffffffffffffffffffffffffffffffffffffffff1614151561063c57600080fd5b3073ffffffffffffffffffffffffffffffffffffffff1631905090565b6000806000600260008573ffffffffffffffffffffffffffffffffffffffff1673ffffffffffffffffffffffffffffffffffffffff16815260200190815260200160002060010160000154600260008673ffffffffffffffffffffffffffffffffffffffff1673ffffffffffffffffffffffffffffffffffffffff16815260200190815260200160002060010160010154600260008773ffffffffffffffffffffffffffffffffffffffff1673ffffffffffffffffffffffffffffffffffffffff168152602001908152602001600020600101600201805490509250925092509193909250565b6000809054906101000a900473ffffffffffffffffffffffffffffffffffffffff1673ffffffffffffffffffffffffffffffffffffffff163373ffffffffffffffffffffffffffffffffffffffff1614151561079b57600080fd5b6000809054906101000a900473ffffffffffffffffffffffffffffffffffffffff1673ffffffffffffffffffffffffffffffffffffffff16ff5b33838073ffffffffffffffffffffffffffffffffffffffff168273ffffffffffffffffffffffffffffffffffffffff161415151561081257600080fd5b60008311151561082157600080fd5b60008573ffffffffffffffffffffffffffffffffffffffff161415151561084757600080fd5b600086600019161415801561086157506000846000191614155b151561086c57600080fd5b60003411151561087b57600080fd5b8360016000886000191660001916815260200190815260200160002060040181600019169055508460016000886000191660001916815260200190815260200160002060010160006101000a81548173ffffffffffffffffffffffffffffffffffffffff021916908373ffffffffffffffffffffffffffffffffffffffff1602179055503360016000886000191660001916815260200190815260200160002060020160006101000a81548173ffffffffffffffffffffffffffffffffffffffff021916908373ffffffffffffffffffffffffffffffffffffffff1602179055506001806000886000191660001916815260200190815260200160002060020160146101000a81548160ff0219169083600781111561099657fe5b0217905550346001600088600019166000191681526020019081526020016000206000018190555042600160008860001916600019168152602001908152602001600020600601819055506201518083024201600160008860001916600019168152602001908152602001600020600501819055507fde1e745cd2c9fb380a94905662c70d0ac280fe254a48511d9441b42791ce420786338787346040518086600019166000191681526020018573ffffffffffffffffffffffffffffffffffffffff1673ffffffffffffffffffffffffffffffffffffffff1681526020018473ffffffffffffffffffffffffffffffffffffffff1673ffffffffffffffffffffffffffffffffffffffff16815260200183600019166000191681526020018281526020019550505050505060405180910390a1505050505050565b600080600260003373ffffffffffffffffffffffffffffffffffffffff1673ffffffffffffffffffffffffffffffffffffffff16815260200190815260200160002060050154118015610b7e5750600260003373ffffffffffffffffffffffffffffffffffffffff1673ffffffffffffffffffffffffffffffffffffffff168152602001908152602001600020600501543073ffffffffffffffffffffffffffffffffffffffff163110155b1515610b8957600080fd5b600260003373ffffffffffffffffffffffffffffffffffffffff1673ffffffffffffffffffffffffffffffffffffffff1681526020019081526020016000206005015490506000600260003373ffffffffffffffffffffffffffffffffffffffff1673ffffffffffffffffffffffffffffffffffffffff168152602001908152602001600020600501819055503373ffffffffffffffffffffffffffffffffffffffff166108fc829081150290604051600060405180830381858888f193505050501515610c5657600080fd5b7f7fcf532c15f0a6db0bd6d0e038bea71d30d808c7d98cb3bf7268a95bf5081b653382604051808373ffffffffffffffffffffffffffffffffffffffff1673ffffffffffffffffffffffffffffffffffffffff1681526020018281526020019250505060405180910390a150565b60016000866000191660001916815260200190815260200160002060020160009054906101000a900473ffffffffffffffffffffffffffffffffffffffff168073ffffffffffffffffffffffffffffffffffffffff163373ffffffffffffffffffffffffffffffffffffffff16141515610d3d57600080fd5b6000600102866000191614151515610d5457600080fd5b610d616000878685611e59565b610d6e6001878786611e59565b600160026000600160008a6000191660001916815260200190815260200160002060010160009054906101000a900473ffffffffffffffffffffffffffffffffffffffff1673ffffffffffffffffffffffffffffffffffffffff1673ffffffffffffffffffffffffffffffffffffffff16815260200190815260200160002060040160008282540192505081905550600160036000600160008a600019166000191681526020019081526020016000206004015460001916600019168152602001908152602001600020600401600082825401925050819055504260016000886000191660001916815260200190815260200160002060090181905550600360016000886000191660001916815260200190815260200160002060020160146101000a81548160ff02191690836007811115610ea657fe5b0217905550610f5c6001600088600019166000191681526020019081526020016000206000015460026000600160008b6000191660001916815260200190815260200160002060010160009054906101000a900473ffffffffffffffffffffffffffffffffffffffff1673ffffffffffffffffffffffffffffffffffffffff1673ffffffffffffffffffffffffffffffffffffffff16815260200190815260200160002060050154611f9e90919063ffffffff16565b60026000600160008a6000191660001916815260200190815260200160002060010160009054906101000a900473ffffffffffffffffffffffffffffffffffffffff1673ffffffffffffffffffffffffffffffffffffffff1673ffffffffffffffffffffffffffffffffffffffff168152602001908152602001600020600501819055507f907af99da82179acf7e0d9c5c472e4062a49dcf09c47f201bd6f7006fcb638f38633600160008a6000191660001916815260200190815260200160002060010160009054906101000a900473ffffffffffffffffffffffffffffffffffffffff16600160008b6000191660001916815260200190815260200160002060040154600160008c60001916600019168152602001908152602001600020600001546040518086600019166000191681526020018573ffffffffffffffffffffffffffffffffffffffff1673ffffffffffffffffffffffffffffffffffffffff1681526020018473ffffffffffffffffffffffffffffffffffffffff1673ffffffffffffffffffffffffffffffffffffffff16815260200183600019166000191681526020018281526020019550505050505060405180910390a1505050505050565b6000600260008373ffffffffffffffffffffffffffffffffffffffff1673ffffffffffffffffffffffffffffffffffffffff168152602001908152602001600020600501549050919050565b6000600260008473ffffffffffffffffffffffffffffffffffffffff1673ffffffffffffffffffffffffffffffffffffffff168152602001908152602001600020600101600201828154811015156111c157fe5b906000526020600020900154905092915050565b6000600260008373ffffffffffffffffffffffffffffffffffffffff1673ffffffffffffffffffffffffffffffffffffffff168152602001908152602001600020600401549050919050565b6000809054906101000a900473ffffffffffffffffffffffffffffffffffffffff1681565b6001600082600019166000191681526020019081526020016000206101806040519081016040529081600082015481526020016001820160009054906101000a900473ffffffffffffffffffffffffffffffffffffffff1673ffffffffffffffffffffffffffffffffffffffff1673ffffffffffffffffffffffffffffffffffffffff1681526020016002820160009054906101000a900473ffffffffffffffffffffffffffffffffffffffff1673ffffffffffffffffffffffffffffffffffffffff1673ffffffffffffffffffffffffffffffffffffffff1681526020016002820160149054906101000a900460ff16600781111561134257fe5b600781111561134d57fe5b81526020016003820154600019166000191681526020016004820154600019166000191681526020016005820154815260200160068201548152602001600782015481526020016008820154815260200160098201548152602001600a8201548152505060018060078111156113bf57fe5b826060015160078111156113cf57fe5b1415156113db57600080fd5b60016000846000191660001916815260200190815260200160002060020160009054906101000a900473ffffffffffffffffffffffffffffffffffffffff1660016000856000191660001916815260200190815260200160002060010160009054906101000a900473ffffffffffffffffffffffffffffffffffffffff168173ffffffffffffffffffffffffffffffffffffffff163373ffffffffffffffffffffffffffffffffffffffff1614806114be57508073ffffffffffffffffffffffffffffffffffffffff163373ffffffffffffffffffffffffffffffffffffffff16145b15156114c957600080fd5b3373ffffffffffffffffffffffffffffffffffffffff1660016000876000191660001916815260200190815260200160002060020160009054906101000a900473ffffffffffffffffffffffffffffffffffffffff1673ffffffffffffffffffffffffffffffffffffffff16141561158057600460016000876000191660001916815260200190815260200160002060020160146101000a81548160ff0219169083600781111561157657fe5b02179055506115c1565b600560016000876000191660001916815260200190815260200160002060020160146101000a81548160ff021916908360078111156115bb57fe5b02179055505b42600160008760001916600019168152602001908152602001600020600801819055506116956001600087600019166000191681526020019081526020016000206000015460026000600160008a6000191660001916815260200190815260200160002060020160009054906101000a900473ffffffffffffffffffffffffffffffffffffffff1673ffffffffffffffffffffffffffffffffffffffff1673ffffffffffffffffffffffffffffffffffffffff16815260200190815260200160002060050154611f9e90919063ffffffff16565b6002600060016000896000191660001916815260200190815260200160002060020160009054906101000a900473ffffffffffffffffffffffffffffffffffffffff1673ffffffffffffffffffffffffffffffffffffffff1673ffffffffffffffffffffffffffffffffffffffff168152602001908152602001600020600501819055507f3db4f369516026061ef481779937fff5eeba079d3103391f76c91cbac8cd3f8a853360016000896000191660001916815260200190815260200160002060020160009054906101000a900473ffffffffffffffffffffffffffffffffffffffff16600160008a6000191660001916815260200190815260200160002060010160009054906101000a900473ffffffffffffffffffffffffffffffffffffffff16600160008b6000191660001916815260200190815260200160002060040154600160008c60001916600019168152602001908152602001600020600001546040518087600019166000191681526020018673ffffffffffffffffffffffffffffffffffffffff1673ffffffffffffffffffffffffffffffffffffffff1681526020018573ffffffffffffffffffffffffffffffffffffffff1673ffffffffffffffffffffffffffffffffffffffff1681526020018473ffffffffffffffffffffffffffffffffffffffff1673ffffffffffffffffffffffffffffffffffffffff1681526020018360001916600019168152602001828152602001965050505050505060405180910390a15050505050565b600060016000836000191660001916815260200190815260200160002060020160149054906101000a900460ff169050919050565b60008060006003600085600019166000191681526020019081526020016000206001016000015460036000866000191660001916815260200190815260200160002060010160010154600360008760001916600019168152602001908152602001600020600101600201805490509250925092509193909250565b60016000836000191660001916815260200190815260200160002060010160009054906101000a900473ffffffffffffffffffffffffffffffffffffffff168073ffffffffffffffffffffffffffffffffffffffff163373ffffffffffffffffffffffffffffffffffffffff161415156119f457600080fd5b6000826000191614151515611a0857600080fd5b816001600085600019166000191681526020019081526020016000206003018160001916905550600260016000856000191660001916815260200190815260200160002060020160146101000a81548160ff02191690836007811115611a6a57fe5b021790555042600160008560001916600019168152602001908152602001600020600701819055507fb44d4c558a8493b168dbfb2c7a42c128aeddfb301db4eb4a4f7922a814e8063e8360016000866000191660001916815260200190815260200160002060020160009054906101000a900473ffffffffffffffffffffffffffffffffffffffff163360016000886000191660001916815260200190815260200160002060040154866040518086600019166000191681526020018573ffffffffffffffffffffffffffffffffffffffff1673ffffffffffffffffffffffffffffffffffffffff1681526020018473ffffffffffffffffffffffffffffffffffffffff1673ffffffffffffffffffffffffffffffffffffffff168152602001836000191660001916815260200182600019166000191681526020019550505050505060405180910390a1505050565b6000806000806000806001600088600019166000191681526020019081526020016000206005015460016000896000191660001916815260200190815260200160002060060154600160008a6000191660001916815260200190815260200160002060070154600160008b6000191660001916815260200190815260200160002060080154600160008c6000191660001916815260200190815260200160002060090154600160008d60001916600019168152602001908152602001600020600a015495509550955095509550955091939550919395565b6000600360008360001916600019168152602001908152602001600020600401549050919050565b600060036000846000191660001916815260200190815260200160002060010160020182815481101515611cea57fe5b906000526020600020900154905092915050565b6000809054906101000a900473ffffffffffffffffffffffffffffffffffffffff1673ffffffffffffffffffffffffffffffffffffffff163373ffffffffffffffffffffffffffffffffffffffff16141515611d5957600080fd5b600073ffffffffffffffffffffffffffffffffffffffff168173ffffffffffffffffffffffffffffffffffffffff1614151515611d9557600080fd5b8073ffffffffffffffffffffffffffffffffffffffff166000809054906101000a900473ffffffffffffffffffffffffffffffffffffffff1673ffffffffffffffffffffffffffffffffffffffff167f8be0079c531659141344cd1fd0a4f28419497f9722a3daafe3b4186f6b6457e060405160405180910390a3806000806101000a81548173ffffffffffffffffffffffffffffffffffffffff021916908373ffffffffffffffffffffffffffffffffffffffff16021790555050565b60045481565b60008415611ee8576002600060016000876000191660001916815260200190815260200160002060010160009054906101000a900473ffffffffffffffffffffffffffffffffffffffff1673ffffffffffffffffffffffffffffffffffffffff1673ffffffffffffffffffffffffffffffffffffffff1681526020019081526020016000206001019050611f27565b60036000600160008760001916600019168152602001908152602001600020600401546000191660001916815260200190815260200160002060010190505b600082141515611f5757600181600001600082825401925050819055508181600101600082825401925050819055505b6000602060ff16141515611f9757806002018054806001018281611f7b9190611fbc565b9160005260206000209001600085909190915090600019169055505b5050505050565b6000808284019050838110151515611fb257fe5b8091505092915050565b815481835581811511611fe357818360005260206000209182019101611fe29190611fe8565b5b505050565b61200a91905b80821115612006576000816000905550600101611fee565b5090565b905600a165627a7a72305820836e84989e5ad777466b5f1c47df558851f79aff124ca697a425ef27ce0521460029",
  "source": "pragma solidity ^0.4.18; //We have to specify what version of compiler this code will use\n\nimport '../lib/SafeMath.sol';\nimport '../lib/Ownable.sol';\n\ncontract Escrow is Ownable {\n  using SafeMath for uint256;\n\n  enum Status {Pending, Purchased, Shipped, Completed, BuyerCancelled, SellerCancelled, SellerShippingTimeOut, BuyerConfirmationTimeOut}\n  // enum Category {Good, Digital, Service, Auction}\n\n  struct Purchase {\n    uint256 amount;\n    address seller;\n    address buyer;\n    Status status;\n    bytes32 code;\n    bytes32 itemId;\n    // Category category;\n    uint shippingDaysDeadline;\n    uint purchasedTime;\n    uint shippedTime;\n    uint cancelTime;\n    uint completedTime;\n    uint timeoutTime;\n  }\n\n  struct Review {\n    uint total;\n    uint rating;\n    bytes32[] comments;\n  }\n\n  struct User {\n    address wallet;\n    Review review;\n    uint salesNumber;\n    uint256 balance;\n  }\n\n  struct Item {\n    bytes32 itemId;\n    Review review;\n    uint salesNumber;\n  }\n\n  mapping(bytes32 => Purchase) purchases;\n  mapping(address => User) users;\n  mapping(bytes32 => Item) items;\n  uint public confirmationDaysDeadline;\n\n  // bytes32[] private pendingPurchases;\n  // bytes32[] private pendingPurchasesToDelete;\n  // uint private numPendingPurchasesToDelete = 0;\n\n  event ItemPurchased(bytes32 purchaseId, address buyer, address seller, bytes32 itemId, uint256 amount);\n  event ItemShipped(bytes32 purchaseId, address buyer, address seller, bytes32 itemId, bytes32 code);\n  event PurchaseCompleted(bytes32 purchaseId, address buyer, address seller, bytes32 itemId, uint256 amount);\n  event PurchaseCancelled(bytes32 purchaseId, address sender, address buyer, address seller, bytes32 itemId, uint256 amount);\n  event ShippingTimeout(bytes32 purchaseId, address buyer, address seller, bytes32 itemId, uint256 amount);\n  event ConfirmationTimeout(bytes32 purchaseId, address buyer, address seller, bytes32 itemId, uint256 amount);\n  event Withdrawal(address sender, uint256 amount);\n\n  function Escrow() public {\n    confirmationDaysDeadline = 15;\n  }\n\n  /**\n   * @dev Guarantee that the sender is the buyer of the purchase\n   * @param _buyer wallet address of buyer\n   */\n  modifier onlyBuyer(address _buyer) {\n    require(msg.sender == _buyer);\n    _;\n  }\n\n  /**\n   * @dev Guarantee that the sender is the Seller of the purchase\n   * @param _seller wallet address of seller\n   */\n  modifier onlySeller(address _seller) {\n    require(msg.sender == _seller);\n    _;\n  }\n\n  /**\n   * @dev Guarantee that the sender is either a buyer or seller of his transaction\n   * @param _buyer wallet address of buyer\n   * @param _seller wallet address of seller\n   */\n  modifier onlyBuyerOrSeller(address _buyer, address _seller) {\n    require(msg.sender == _buyer || msg.sender == _seller);\n    _;\n  }\n\n  /**\n   * @dev Prevent a buyer from buying an item he listed himself\n   * @param _buyer wallet address of buyer\n   * @param _seller wallet address of seller\n   */\n  modifier preventSelfBuy(address _buyer, address _seller) {\n    require(_buyer != _seller);\n    _;\n  }\n\n  /**\n   * @dev Require that current state of purchase \"_purchaseState\" is equal to \"_tmpState\"\n   * @param _purchase current purchase\n   * @param _requirePurchaseState purchase status we want the purchase to be equal to\n   */\n  modifier onlyForPurchaseState(Purchase _purchase, Status _requirePurchaseState) {\n    require(_purchase.status == _requirePurchaseState);\n    _;\n  }\n\n  /**\n   * @dev Buyer Purchase an item '_itemId' from Seller (_seller) - State of the purchase : \"Purchased\"\n   * @param _purchaseId ID of _purchase\n   * @param _seller wallet address of _seller\n   * @param _itemId ID of _item\n   * @param _shippingDaysDeadline seller needs to ship the item within _shippingDaysDeadline days after purchase or purchase will be timeout and cancelled\n   */\n  function purchase(bytes32 _purchaseId, address _seller, bytes32 _itemId, uint _shippingDaysDeadline)\n  preventSelfBuy(msg.sender, _seller)\n  payable public\n  {\n    require(_shippingDaysDeadline > 0);\n    require(_seller != 0);\n    require(_purchaseId != '' && _itemId != '');\n    require(msg.value > 0);\n    purchases[_purchaseId].itemId = _itemId;\n    purchases[_purchaseId].seller = _seller;\n    purchases[_purchaseId].buyer = msg.sender;\n    purchases[_purchaseId].status = Status.Purchased;\n    purchases[_purchaseId].amount = msg.value;\n    purchases[_purchaseId].purchasedTime = now;\n    purchases[_purchaseId].shippingDaysDeadline = now + _shippingDaysDeadline * 1 days;\n    //pendingPurchases.push(_purchaseId);\n    ItemPurchased(_purchaseId, msg.sender, _seller, _itemId, msg.value);\n  }\n\n  /**\n   * @dev Seller send the code to Buyer (Code can be a tracking number, a digital code, a coupon) [ State of the purchase : \"Shipped\"]\n   * @param _purchaseId [ID of purchaseID in Database]\n   * @param _code [shipping tracking number, digital code, coupon, etc..]\n   */\n  function setCode(bytes32 _purchaseId, bytes32 _code)\n  onlySeller(purchases[_purchaseId].seller)\n  public\n  {\n    require(_code != '');\n    purchases[_purchaseId].code = _code;\n    purchases[_purchaseId].status = Status.Shipped;\n    purchases[_purchaseId].shippedTime = now;\n    ItemShipped(_purchaseId, purchases[_purchaseId].buyer, msg.sender, purchases[_purchaseId].itemId, _code);\n  }\n\n  /**\n   * @dev Buyer confirms receive the code from the Seller - Balance is added to Seller mapping [State of the purchase : \"Completed\"]\n   * @param _purchaseId   [ID of purchaseID in Database]\n   * @param  _userReviewId [ID of Review in Database]\n   * @param _itemReviewId [ID of Review in Database]\n   * @param _userRating   [Value between 1-5]\n   * @param _itemRating   [Value between 1-5]\n   */\n  function confirmPurchase(bytes32 _purchaseId, bytes32 _userReviewId, bytes32 _itemReviewId, uint _userRating, uint _itemRating)\n  onlyBuyer(purchases[_purchaseId].buyer)\n  public\n  {\n    require(_purchaseId != 0);\n    // Delete Purchase from list of pending purchase\n    // deleteOnePurchaseFromPending(_purchaseId);\n\n    // Set user & item review & rating\n    setReview(false, _purchaseId, _itemReviewId, _itemRating);\n    setReview(true, _purchaseId, _userReviewId, _userRating);\n\n    // Set user & item total sales Number\n    users[purchases[_purchaseId].seller].salesNumber += 1;\n    items[purchases[_purchaseId].itemId].salesNumber += 1;\n\n    purchases[_purchaseId].completedTime = now;\n    purchases[_purchaseId].status = Status.Completed;\n    users[purchases[_purchaseId].seller].balance = users[purchases[_purchaseId].seller].balance.add(purchases[_purchaseId].amount);\n    PurchaseCompleted(_purchaseId, msg.sender, purchases[_purchaseId].seller, purchases[_purchaseId].itemId, purchases[_purchaseId].amount);\n  }\n\n  /**\n   * @dev Set Item or Users's review & rating\n   * @param isUserReview [Distinguish if we're setting an Item or an User Review]\n   * @param _purchaseId  [ID of purchase in Database]\n   * @param _reviewId    [ID of Review in Database]\n   * @param _rating      [Value between 1-5]\n   */\n  function setReview(bool isUserReview, bytes32 _purchaseId, bytes32 _reviewId, uint _rating) private {\n    Review review;\n    if (isUserReview) {\n      review = users[purchases[_purchaseId].seller].review;\n    } else {\n      review = items[purchases[_purchaseId].itemId].review;\n    }\n\n    // Test if rating was provided\n    if (_rating != 0) {\n      review.total += 1;\n      review.rating += _rating;\n    }\n    // Test if review was provided\n    if (_reviewId.length != 0) {\n      review.comments.push(_reviewId);\n    }\n  }\n\n  /**\n   * @dev Cancel a Purchase by a buyer or a seller - can only happen before the item has been shipped\n   * @param _purchaseId   [ID of purchase in Database]\n   */\n  function cancelPurchase(bytes32 _purchaseId)\n  onlyForPurchaseState(purchases[_purchaseId], Status.Purchased)\n  onlyBuyerOrSeller(purchases[_purchaseId].buyer, purchases[_purchaseId].seller)\n  public\n  {\n    if (purchases[_purchaseId].buyer == msg.sender) {\n      purchases[_purchaseId].status = Status.BuyerCancelled;\n    } else {\n      purchases[_purchaseId].status = Status.SellerCancelled;\n    }\n    purchases[_purchaseId].cancelTime = now;\n    users[purchases[_purchaseId].buyer].balance = users[purchases[_purchaseId].buyer].balance.add(purchases[_purchaseId].amount);\n    PurchaseCancelled(\n      _purchaseId,\n      msg.sender,\n      purchases[_purchaseId].buyer,\n      purchases[_purchaseId].seller,\n      purchases[_purchaseId].itemId,\n      purchases[_purchaseId].amount\n    );\n    //deleteOnePurchaseFromPending(_purchaseId);\n  }\n\n  /**\n   * @dev Get msg.sender current balance (money available to be withdrawn anytime)\n   * @return uint [msg.sender balance]\n   */\n  function getUserBalance(address _user) view public returns (uint) {\n    return users[_user].balance;\n  }\n\n  /**\n   * @dev Withdraw your current balance (Contract) to your own wallet\n   */\n  function withdraw() public {\n    require(\n      users[msg.sender].balance > 0 &&\n      this.balance >= users[msg.sender].balance)\n    ;\n    uint256 amount = users[msg.sender].balance;\n    users[msg.sender].balance = 0;\n    msg.sender.transfer(amount);\n    Withdrawal(msg.sender, amount);\n  }\n\n\n  /**\n   * @dev Get All Status Time for a Purchase\n   * @param _purchaseId [ID of purchase in database]\n   * @return uint shippingDaysDeadline [Block time when purchase will be considered in shipping Timeout]\n   * @return uint purchasedTime [Block time when purchase state reached Status.Purchased]\n   * @return uint shippedTime [Block time when purchase state reached Status.Shipped]\n   * @return uint cancelTime [Block time when purchase state reached Status.Cancelled]\n   * @return uint completedTime [Block time when purchase state reached Status.Completed]\n   * @return uint timeoutTime [Block time when a timeout occured (shipping/confirmation timeout)]\n   */\n  function getPurchaseTimes(bytes32 _purchaseId) view public returns (uint, uint, uint, uint, uint, uint) {\n    return (purchases[_purchaseId].shippingDaysDeadline,\n            purchases[_purchaseId].purchasedTime,\n            purchases[_purchaseId].shippedTime,\n            purchases[_purchaseId].cancelTime,\n            purchases[_purchaseId].completedTime,\n            purchases[_purchaseId].timeoutTime);\n  }\n\n  /**\n   * @dev Get current state of a purchase\n   * @param _purchaseId [Purchase ID in the Database]\n   * @return Status [Purchase State]\n   */\n  function getPurchaseState(bytes32 _purchaseId) view public returns (Status) {\n    return purchases[_purchaseId].status;\n  }\n\n  /**\n   *  Get seller total number of sales he made\n   * @param _user [wallet address of user]\n   * @return uint [number of total seller's sales]\n   */\n  function getUserSalesNumber(address _user) view public returns (uint) {\n    return users[_user].salesNumber;\n  }\n\n  /**\n   * @dev Get total number item sold\n   * @param _itemId [ID of item in database]\n   * @return uint [number of total item sold]\n   */\n  function getItemSalesNumber(bytes32 _itemId) view public returns (uint) {\n    return items[_itemId].salesNumber;\n  }\n\n  /**\n   * @dev Get a seller ratings + reviews\n   * @param _user [address of User wallet in database]\n   * @return uint [Total Number of Rating]\n   * @return uint [Accumulated value of all user ratings]\n   * @return uint [Total Number of user reviews]\n   */\n  function getUserReviews(address _user) view public returns (uint, uint, uint) {\n    return (users[_user].review.total,\n            users[_user].review.rating,\n            users[_user].review.comments.length);\n  }\n\n  /**\n   * @dev Get a single review for a Seller\n   * @param _user [address of User wallet in database]\n   * @param _index [index of the user review in the comments array]\n   * @return bytes32 [ID of the User Review in Database]\n   */\n  function getUserReviewComment(address _user, uint _index) view public returns (bytes32) {\n    return users[_user].review.comments[_index];\n  }\n\n  /**\n   * @dev Get a single item its ratings + reviews\n   * @param _itemId [ID of Item in database]\n   * @return uint [Total Number of item ratings]\n   * @return uint [Accumulated value of all item ratings]\n   * @return uint [Total Number of item reviews]\n   */\n  function getItemReviews(bytes32 _itemId) view public returns (uint, uint, uint) {\n    return (items[_itemId].review.total,\n            items[_itemId].review.rating,\n            items[_itemId].review.comments.length);\n  }\n\n  /**\n   * @dev Get a single item review\n   * @param _itemId [ID of item in database]\n   * @param _index [index of the item review in the comments array]\n   * @return bytes32 [ID of the User Review in Database]\n   */\n  function getItemReviewComment(bytes32 _itemId, uint _index) view public returns (bytes32) {\n    return items[_itemId].review.comments[_index];\n  }\n\n  // Delete a purchase from the list of pending purchases\n  // i.e : when a purchase is complete or cancel\n  // function deleteOnePurchaseFromPending(bytes32 _purchaseId) private {\n  //   // Index == -1 means that the item doesn't exist in the array\n  //   require(\n  //     (IndexOfPurchase(_purchaseId) != uint(-1)) &&\n  //     (IndexOfPurchase(_purchaseId) < pendingPurchases.length)\n  //   );\n\n  //   delete pendingPurchases[index];\n  //   if (pendingPurchases.length >= 2) {\n  //     pendingPurchases[index] = pendingPurchases[pendingPurchases.length - 1];\n  //     delete pendingPurchases[pendingPurchases.length - 1];\n  //   }\n  //   pendingPurchases.length--;\n\n  //   require(IndexOfPurchase(_purchaseId) == uint(-1));\n  // }\n\n   // Finds the index of a given purchaseId in the pending purchases array.\n  // function IndexOfPurchase(bytes32 _purchaseId) constant public returns(uint) {\n  //   for (uint i = 0; i < pendingPurchases.length; i++) {\n  //     if (pendingPurchases[i] == _purchaseId) {\n  //       return i;\n  //     }\n  //   }\n  //   // Index not found\n  //   return uint(-1);\n  // }\n\n  // Main auto cancel function\n  //   -- cancel shipping Timeout orders\n  //   -- cancel confirmation timeout orders\n  // function cancelTimeoutOrders() onlyOwner public {\n  //   for (uint i = 0; i < pendingPurchases.length; i++) {\n  //     // Automatically cancel orders that haven't been shipped before the deadline\n  //     cancelShippingTimeoutOrders(pendingPurchases[i]);\n  //     // Automatically cancel orders that haven't been shipped before the deadline\n  //     cancelConfirmationTimeoutOrders(pendingPurchases[i]);\n  //   }\n  //   clearPendingPurchases();\n  // }\n\n  // This function will remove all purchases included in pendingPurchasesToDelete array from pendingPurchases\n  // Purchase found in pendingPurchasesToDelete : means that the purchase state is not pending anymore\n  // function clearPendingPurchases() private {\n  //   for (uint i = 0; i < numPendingPurchasesToDelete; i++) {\n  //     deleteOnePurchaseFromPending(pendingPurchasesToDelete[i]);\n  //   }\n  //   numPendingPurchasesToDelete = 0;\n  // }\n\n  // Automatically cancel orders that haven't been shipped before the deadline\n  // function cancelShippingTimeoutOrders(bytes32 _purchaseId) private {\n  //   if ((purchases[_purchaseId].shippingDaysDeadline <  now) && (purchases[_purchaseId].status == Status.Purchased)) {\n  //     if (purchases[_purchaseId].buyer.send(purchases[_purchaseId].amount)) {\n  //       purchases[_purchaseId].status = Status.SellerShippingTimeOut;\n  //       purchases[_purchaseId].amount = 0;\n  //       if (numPendingPurchasesToDelete == pendingPurchasesToDelete.length) {\n  //         pendingPurchasesToDelete.length += 1;\n  //       }\n  //       pendingPurchasesToDelete[numPendingPurchasesToDelete] = _purchaseId;\n  //       numPendingPurchasesToDelete += 1;\n  //       purchases[_purchaseId].timeoutTime = now;\n  //       ShippingTimeout(_purchaseId, purchases[_purchaseId].buyer, purchases[_purchaseId].seller, purchases[_purchaseId].itemId);\n  //     }\n  //   }\n  // }\n\n  // Automatically confirm orders that haven't been confirmed by the users before the deadline\n  // function cancelConfirmationTimeoutOrders(bytes32 _purchaseId) private {\n  //   if (((purchases[_purchaseId].shippedTime + confirmationDaysDeadline * 1 days) <  now) && (purchases[_purchaseId].status == Status.Shipped)) {\n  //     if (purchases[_purchaseId].seller.send(purchases[_purchaseId].amount)) {\n  //       purchases[_purchaseId].status = Status.BuyerConfirmationTimeOut;\n  //       purchases[_purchaseId].amount = 0;\n  //       if (numPendingPurchasesToDelete == pendingPurchasesToDelete.length) {\n  //         pendingPurchasesToDelete.length += 1;\n  //       }\n  //       pendingPurchasesToDelete[numPendingPurchasesToDelete] = _purchaseId;\n  //       numPendingPurchasesToDelete += 1;\n  //       purchases[_purchaseId].timeoutTime = now;\n  //       ConfirmationTimeout(_purchaseId, purchases[_purchaseId].buyer, purchases[_purchaseId].seller, purchases[_purchaseId].itemId);\n  //     }\n  //   }\n  // }\n\n  // Set a global number of days limitation to confirm a purchase after shipping before it gets automatically confirmed\n  // function setConfirmationDaysDeadline(uint _day) onlyOwner public {\n  //   confirmationDaysDeadline = _day;\n  // }\n\n  /**\n   * @dev Get total balance of the Escrow contract\n   * @return uint [total balance of Escrow contract]\n   */\n  function getBalance() onlyOwner view public returns (uint) {\n    return this.balance;\n  }\n\n  /**\n   * @dev Kill the contract and send all the balance to the contract owner\n   */\n  function killContract() onlyOwner public {\n    selfdestruct(owner);\n  }\n}\n",
  "sourcePath": "/Users/fcheng/workspace/Personal/simba/simba-contracts/contracts/escrows/Escrow.sol",
  "compiler": {
    "name": "solc",
    "version": "0.4.18+commit.9cf6e910.Emscripten.clang"
  },
  "schemaVersion": "1.0.1",
  "updatedAt": "2017-12-03T06:32:53.147Z"
}